{
  "_format": "hh-sol-artifact-1",
  "contractName": "MyMarketplace",
  "sourceName": "contracts/YTKMarketplace.sol",
  "abi": [
    {
      "inputs": [
        {
          "internalType": "uint256",
          "name": "_feePercent",
          "type": "uint256"
        },
        {
          "internalType": "string",
          "name": "_name",
          "type": "string"
        },
        {
          "internalType": "contract YtkNft",
          "name": "_nft",
          "type": "address"
        }
      ],
      "stateMutability": "nonpayable",
      "type": "constructor"
    },
    {
      "anonymous": false,
      "inputs": [
        {
          "indexed": false,
          "internalType": "uint256",
          "name": "itemId",
          "type": "uint256"
        },
        {
          "indexed": true,
          "internalType": "address",
          "name": "nft",
          "type": "address"
        },
        {
          "indexed": false,
          "internalType": "uint256",
          "name": "tokenId",
          "type": "uint256"
        },
        {
          "indexed": false,
          "internalType": "uint256",
          "name": "price",
          "type": "uint256"
        },
        {
          "indexed": true,
          "internalType": "address",
          "name": "seller",
          "type": "address"
        },
        {
          "indexed": true,
          "internalType": "address",
          "name": "buyer",
          "type": "address"
        }
      ],
      "name": "Bought",
      "type": "event"
    },
    {
      "anonymous": false,
      "inputs": [
        {
          "indexed": false,
          "internalType": "uint256",
          "name": "itemId",
          "type": "uint256"
        },
        {
          "indexed": true,
          "internalType": "address",
          "name": "nft",
          "type": "address"
        },
        {
          "indexed": false,
          "internalType": "uint256",
          "name": "tokenId",
          "type": "uint256"
        },
        {
          "indexed": false,
          "internalType": "uint256",
          "name": "price",
          "type": "uint256"
        },
        {
          "indexed": false,
          "internalType": "bool",
          "name": "listed",
          "type": "bool"
        },
        {
          "indexed": true,
          "internalType": "address",
          "name": "seller",
          "type": "address"
        }
      ],
      "name": "Offered",
      "type": "event"
    },
    {
      "inputs": [
        {
          "internalType": "uint256",
          "name": "_tokenId",
          "type": "uint256"
        }
      ],
      "name": "buyWithEther",
      "outputs": [],
      "stateMutability": "payable",
      "type": "function"
    },
    {
      "inputs": [
        {
          "internalType": "uint256",
          "name": "_tokenId",
          "type": "uint256"
        },
        {
          "internalType": "uint256",
          "name": "_tokenAmount",
          "type": "uint256"
        }
      ],
      "name": "buyWithYungToken",
      "outputs": [],
      "stateMutability": "payable",
      "type": "function"
    },
    {
      "inputs": [],
      "name": "feePercent",
      "outputs": [
        {
          "internalType": "uint256",
          "name": "",
          "type": "uint256"
        }
      ],
      "stateMutability": "view",
      "type": "function"
    },
    {
      "inputs": [
        {
          "internalType": "uint256",
          "name": "_itemId",
          "type": "uint256"
        }
      ],
      "name": "getTotalPrice",
      "outputs": [
        {
          "internalType": "uint256",
          "name": "",
          "type": "uint256"
        }
      ],
      "stateMutability": "view",
      "type": "function"
    },
    {
      "inputs": [],
      "name": "itemCount",
      "outputs": [
        {
          "internalType": "uint256",
          "name": "",
          "type": "uint256"
        }
      ],
      "stateMutability": "view",
      "type": "function"
    },
    {
      "inputs": [
        {
          "internalType": "uint256",
          "name": "",
          "type": "uint256"
        }
      ],
      "name": "items",
      "outputs": [
        {
          "internalType": "uint256",
          "name": "itemId",
          "type": "uint256"
        },
        {
          "internalType": "contract IERC721",
          "name": "nft",
          "type": "address"
        },
        {
          "internalType": "uint256",
          "name": "tokenId",
          "type": "uint256"
        },
        {
          "internalType": "uint256",
          "name": "price",
          "type": "uint256"
        },
        {
          "internalType": "address payable",
          "name": "seller",
          "type": "address"
        },
        {
          "internalType": "bool",
          "name": "sold",
          "type": "bool"
        },
        {
          "internalType": "bool",
          "name": "listed",
          "type": "bool"
        }
      ],
      "stateMutability": "view",
      "type": "function"
    },
    {
      "inputs": [
        {
          "internalType": "uint256",
          "name": "_tokenId",
          "type": "uint256"
        }
      ],
      "name": "listWithEther",
      "outputs": [],
      "stateMutability": "nonpayable",
      "type": "function"
    },
    {
      "inputs": [
        {
          "internalType": "uint256",
          "name": "_tokenId",
          "type": "uint256"
        }
      ],
      "name": "listWithYungToken",
      "outputs": [],
      "stateMutability": "nonpayable",
      "type": "function"
    },
    {
      "inputs": [
        {
          "internalType": "address",
          "name": "recipient",
          "type": "address"
        },
        {
          "internalType": "uint256",
          "name": "_price",
          "type": "uint256"
        },
        {
          "internalType": "uint256",
          "name": "_nextTokenId",
          "type": "uint256"
        }
      ],
      "name": "mintWithEther",
      "outputs": [],
      "stateMutability": "payable",
      "type": "function"
    },
    {
      "inputs": [
        {
          "internalType": "address",
          "name": "recipient",
          "type": "address"
        },
        {
          "internalType": "uint256",
          "name": "_nextTokenId",
          "type": "uint256"
        },
        {
          "internalType": "uint256",
          "name": "tokenAmount",
          "type": "uint256"
        },
        {
          "internalType": "uint256",
          "name": "_price",
          "type": "uint256"
        }
      ],
      "name": "mintWithYungToken",
      "outputs": [],
      "stateMutability": "nonpayable",
      "type": "function"
    },
    {
      "inputs": [],
      "name": "name",
      "outputs": [
        {
          "internalType": "string",
          "name": "",
          "type": "string"
        }
      ],
      "stateMutability": "view",
      "type": "function"
    },
    {
      "inputs": [],
      "name": "nft",
      "outputs": [
        {
          "internalType": "contract YtkNft",
          "name": "",
          "type": "address"
        }
      ],
      "stateMutability": "view",
      "type": "function"
    },
    {
      "inputs": [],
      "name": "owner",
      "outputs": [
        {
          "internalType": "address payable",
          "name": "",
          "type": "address"
        }
      ],
      "stateMutability": "view",
      "type": "function"
    },
    {
      "inputs": [
        {
          "internalType": "uint256",
          "name": "_tokenId",
          "type": "uint256"
        },
        {
          "internalType": "uint256",
          "name": "_price",
          "type": "uint256"
        }
      ],
      "name": "reListWitEther",
      "outputs": [],
      "stateMutability": "nonpayable",
      "type": "function"
    },
    {
      "inputs": [
        {
          "internalType": "uint256",
          "name": "_tokenId",
          "type": "uint256"
        },
        {
          "internalType": "uint256",
          "name": "_tokenAmount",
          "type": "uint256"
        }
      ],
      "name": "reListWithYungToken",
      "outputs": [],
      "stateMutability": "nonpayable",
      "type": "function"
    },
    {
      "inputs": [
        {
          "internalType": "address",
          "name": "",
          "type": "address"
        },
        {
          "internalType": "uint256",
          "name": "",
          "type": "uint256"
        }
      ],
      "name": "soldItems",
      "outputs": [
        {
          "internalType": "uint256",
          "name": "itemId",
          "type": "uint256"
        },
        {
          "internalType": "contract IERC721",
          "name": "nft",
          "type": "address"
        },
        {
          "internalType": "uint256",
          "name": "tokenId",
          "type": "uint256"
        },
        {
          "internalType": "uint256",
          "name": "price",
          "type": "uint256"
        },
        {
          "internalType": "address",
          "name": "seller",
          "type": "address"
        }
      ],
      "stateMutability": "view",
      "type": "function"
    },
    {
      "inputs": [],
      "name": "withdraw",
      "outputs": [],
      "stateMutability": "nonpayable",
      "type": "function"
    }
  ],
  "bytecode": "0x60c0604052600160009054906101000a900473ffffffffffffffffffffffffffffffffffffffff1673ffffffffffffffffffffffffffffffffffffffff1663f92331356040518163ffffffff1660e01b815260040160206040518083038186803b1580156200006d57600080fd5b505afa15801562000082573d6000803e3d6000fd5b505050506040513d601f19601f82011682018060405250810190620000a89190620002eb565b600660006101000a81548173ffffffffffffffffffffffffffffffffffffffff021916908373ffffffffffffffffffffffffffffffffffffffff160217905550348015620000f557600080fd5b506040516200324b3803806200324b83398181016040528101906200011b919062000526565b60016000819055503373ffffffffffffffffffffffffffffffffffffffff1660808173ffffffffffffffffffffffffffffffffffffffff16815250508260a08181525050816002908051906020019062000177929190620001c2565b5080600160006101000a81548173ffffffffffffffffffffffffffffffffffffffff021916908373ffffffffffffffffffffffffffffffffffffffff16021790555050505062000606565b828054620001d090620005d0565b90600052602060002090601f016020900481019282620001f4576000855562000240565b82601f106200020f57805160ff191683800117855562000240565b8280016001018555821562000240579182015b828111156200023f57825182559160200191906001019062000222565b5b5090506200024f919062000253565b5090565b5b808211156200026e57600081600090555060010162000254565b5090565b6000604051905090565b600080fd5b600080fd5b600073ffffffffffffffffffffffffffffffffffffffff82169050919050565b6000620002b38262000286565b9050919050565b620002c581620002a6565b8114620002d157600080fd5b50565b600081519050620002e581620002ba565b92915050565b6000602082840312156200030457620003036200027c565b5b60006200031484828501620002d4565b91505092915050565b6000819050919050565b62000332816200031d565b81146200033e57600080fd5b50565b600081519050620003528162000327565b92915050565b600080fd5b600080fd5b6000601f19601f8301169050919050565b7f4e487b7100000000000000000000000000000000000000000000000000000000600052604160045260246000fd5b620003ad8262000362565b810181811067ffffffffffffffff82111715620003cf57620003ce62000373565b5b80604052505050565b6000620003e462000272565b9050620003f28282620003a2565b919050565b600067ffffffffffffffff82111562000415576200041462000373565b5b620004208262000362565b9050602081019050919050565b60005b838110156200044d57808201518184015260208101905062000430565b838111156200045d576000848401525b50505050565b60006200047a6200047484620003f7565b620003d8565b9050828152602081018484840111156200049957620004986200035d565b5b620004a68482856200042d565b509392505050565b600082601f830112620004c657620004c562000358565b5b8151620004d884826020860162000463565b91505092915050565b6000620004ee82620002a6565b9050919050565b6200050081620004e1565b81146200050c57600080fd5b50565b6000815190506200052081620004f5565b92915050565b6000806000606084860312156200054257620005416200027c565b5b6000620005528682870162000341565b935050602084015167ffffffffffffffff81111562000576576200057562000281565b5b6200058486828701620004ae565b925050604062000597868287016200050f565b9150509250925092565b7f4e487b7100000000000000000000000000000000000000000000000000000000600052602260045260246000fd5b60006002820490506001821680620005e957607f821691505b602082108114156200060057620005ff620005a1565b5b50919050565b60805160a051612c03620006486000396000818161107c01526116760152600081816106010152818161068f0152818161144b01526119e40152612c036000f3fe6080604052600436106100fe5760003560e01c80637fd6f15c11610095578063bfb231d211610064578063bfb231d2146102e5578063c0b32f3b14610328578063ca7dd37514610351578063dbbed72d1461038e578063ff109e19146103aa576100fe565b80637fd6f15c146102325780638bf936771461025d5780638da5cb5b14610279578063af215f10146102a4576100fe565b806347ccca02116100d157806347ccca021461019757806350d64573146101c2578063550b9c11146101eb5780636bfb0d0114610207576100fe565b806306fdde0314610103578063124523f61461012e57806325476cb8146101575780633ccfd60b14610180575b600080fd5b34801561010f57600080fd5b506101186103d3565b6040516101259190611f30565b60405180910390f35b34801561013a57600080fd5b5061015560048036038101906101509190611f8d565b610461565b005b34801561016357600080fd5b5061017e60048036038101906101799190611fba565b61052b565b005b34801561018c57600080fd5b506101956105ff565b005b3480156101a357600080fd5b506101ac6106f6565b6040516101b99190612079565b60405180910390f35b3480156101ce57600080fd5b506101e960048036038101906101e491906120d2565b61071c565b005b61020560048036038101906102009190611f8d565b610c2c565b005b34801561021357600080fd5b5061021c611074565b6040516102299190612148565b60405180910390f35b34801561023e57600080fd5b5061024761107a565b6040516102549190612148565b60405180910390f35b61027760048036038101906102729190612163565b61109e565b005b34801561028557600080fd5b5061028e611449565b60405161029b91906121d7565b60405180910390f35b3480156102b057600080fd5b506102cb60048036038101906102c691906121f2565b61146d565b6040516102dc959493929190612262565b60405180910390f35b3480156102f157600080fd5b5061030c60048036038101906103079190611f8d565b611500565b60405161031f97969594939291906122d0565b60405180910390f35b34801561033457600080fd5b5061034f600480360381019061034a9190611fba565b61159c565b005b34801561035d57600080fd5b5061037860048036038101906103739190611f8d565b611670565b6040516103859190612148565b60405180910390f35b6103a860048036038101906103a39190611fba565b6116d3565b005b3480156103b657600080fd5b506103d160048036038101906103cc9190611f8d565b611d73565b005b600280546103e09061236e565b80601f016020809104026020016040519081016040528092919081815260200182805461040c9061236e565b80156104595780601f1061042e57610100808354040283529160200191610459565b820191906000526020600020905b81548152906001019060200180831161043c57829003601f168201915b505050505081565b60006004600083815260200190815260200160002090508060040160009054906101000a900473ffffffffffffffffffffffffffffffffffffffff1673ffffffffffffffffffffffffffffffffffffffff163373ffffffffffffffffffffffffffffffffffffffff161461050a576040517f08c379a000000000000000000000000000000000000000000000000000000000815260040161050190612412565b60405180910390fd5b60018160040160156101000a81548160ff0219169083151502179055505050565b60006004600084815260200190815260200160002090508060040160009054906101000a900473ffffffffffffffffffffffffffffffffffffffff1673ffffffffffffffffffffffffffffffffffffffff163373ffffffffffffffffffffffffffffffffffffffff16146105d4576040517f08c379a00000000000000000000000000000000000000000000000000000000081526004016105cb90612412565b60405180910390fd5b60018160040160156101000a81548160ff021916908315150217905550818160030181905550505050565b7f000000000000000000000000000000000000000000000000000000000000000073ffffffffffffffffffffffffffffffffffffffff163373ffffffffffffffffffffffffffffffffffffffff161461068d576040517f08c379a0000000000000000000000000000000000000000000000000000000008152600401610684906124a4565b60405180910390fd5b7f000000000000000000000000000000000000000000000000000000000000000073ffffffffffffffffffffffffffffffffffffffff166108fc479081150290604051600060405180830381858888f193505050501580156106f3573d6000803e3d6000fd5b50565b600160009054906101000a900473ffffffffffffffffffffffffffffffffffffffff1681565b610724611e3d565b6000600660009054906101000a900473ffffffffffffffffffffffffffffffffffffffff1673ffffffffffffffffffffffffffffffffffffffff1663dd62ed3e33306040518363ffffffff1660e01b81526004016107839291906124c4565b60206040518083038186803b15801561079b57600080fd5b505afa1580156107af573d6000803e3d6000fd5b505050506040513d601f19601f820116820180604052508101906107d39190612502565b905082811015610818576040517f08c379a000000000000000000000000000000000000000000000000000000000815260040161080f9061257b565b60405180910390fd5b600660009054906101000a900473ffffffffffffffffffffffffffffffffffffffff1673ffffffffffffffffffffffffffffffffffffffff166323b872dd3330866040518463ffffffff1660e01b81526004016108779392919061259b565b602060405180830381600087803b15801561089157600080fd5b505af11580156108a5573d6000803e3d6000fd5b505050506040513d601f19601f820116820180604052508101906108c991906125fe565b50600160009054906101000a900473ffffffffffffffffffffffffffffffffffffffff1673ffffffffffffffffffffffffffffffffffffffff16636a627842866040518263ffffffff1660e01b8152600401610925919061262b565b600060405180830381600087803b15801561093f57600080fd5b505af1158015610953573d6000803e3d6000fd5b50505050600160009054906101000a900473ffffffffffffffffffffffffffffffffffffffff1673ffffffffffffffffffffffffffffffffffffffff166323b872dd3330876040518463ffffffff1660e01b81526004016109b69392919061259b565b600060405180830381600087803b1580156109d057600080fd5b505af11580156109e4573d6000803e3d6000fd5b50505050600360008154809291906109fb90612675565b91905055506040518060e001604052806003548152602001600160009054906101000a900473ffffffffffffffffffffffffffffffffffffffff1673ffffffffffffffffffffffffffffffffffffffff1681526020018581526020018381526020013373ffffffffffffffffffffffffffffffffffffffff168152602001600015158152602001600015158152506004600060035481526020019081526020016000206000820151816000015560208201518160010160006101000a81548173ffffffffffffffffffffffffffffffffffffffff021916908373ffffffffffffffffffffffffffffffffffffffff160217905550604082015181600201556060820151816003015560808201518160040160006101000a81548173ffffffffffffffffffffffffffffffffffffffff021916908373ffffffffffffffffffffffffffffffffffffffff16021790555060a08201518160040160146101000a81548160ff02191690831515021790555060c08201518160040160156101000a81548160ff0219169083151502179055509050503373ffffffffffffffffffffffffffffffffffffffff16600160009054906101000a900473ffffffffffffffffffffffffffffffffffffffff1673ffffffffffffffffffffffffffffffffffffffff167f8e2aa5a71c1bfbb6174cd8eb44ba4640d58d09aab75b7099dab4f31da3f05b4c60035487866000604051610c1594939291906126be565b60405180910390a350610c26611e8d565b50505050565b6000600460008381526020019081526020016000209050600081600301549050803414610c8e576040517f08c379a0000000000000000000000000000000000000000000000000000000008152600401610c8590612775565b60405180910390fd5b8160040160009054906101000a900473ffffffffffffffffffffffffffffffffffffffff1673ffffffffffffffffffffffffffffffffffffffff166108fc829081150290604051600060405180830381858888f19350505050158015610cf8573d6000803e3d6000fd5b50600160009054906101000a900473ffffffffffffffffffffffffffffffffffffffff1673ffffffffffffffffffffffffffffffffffffffff166323b872dd600160009054906101000a900473ffffffffffffffffffffffffffffffffffffffff1673ffffffffffffffffffffffffffffffffffffffff16636352211e866040518263ffffffff1660e01b8152600401610d929190612148565b60206040518083038186803b158015610daa57600080fd5b505afa158015610dbe573d6000803e3d6000fd5b505050506040513d601f19601f82011682018060405250810190610de291906127aa565b33866040518463ffffffff1660e01b8152600401610e029392919061259b565b600060405180830381600087803b158015610e1c57600080fd5b505af1158015610e30573d6000803e3d6000fd5b50505050600560008360040160009054906101000a900473ffffffffffffffffffffffffffffffffffffffff1673ffffffffffffffffffffffffffffffffffffffff1673ffffffffffffffffffffffffffffffffffffffff1681526020019081526020016000206040518060a0016040528084600001548152602001600160009054906101000a900473ffffffffffffffffffffffffffffffffffffffff1673ffffffffffffffffffffffffffffffffffffffff168152602001858152602001846003015481526020018460040160009054906101000a900473ffffffffffffffffffffffffffffffffffffffff1673ffffffffffffffffffffffffffffffffffffffff1681525090806001815401808255809150506001900390600052602060002090600502016000909190919091506000820151816000015560208201518160010160006101000a81548173ffffffffffffffffffffffffffffffffffffffff021916908373ffffffffffffffffffffffffffffffffffffffff160217905550604082015181600201556060820151816003015560808201518160040160006101000a81548173ffffffffffffffffffffffffffffffffffffffff021916908373ffffffffffffffffffffffffffffffffffffffff1602179055505050338260040160006101000a81548173ffffffffffffffffffffffffffffffffffffffff021916908373ffffffffffffffffffffffffffffffffffffffff16021790555060008260040160156101000a81548160ff021916908315150217905550505050565b60035481565b7f000000000000000000000000000000000000000000000000000000000000000081565b6110a6611e3d565b600034116110e9576040517f08c379a00000000000000000000000000000000000000000000000000000000081526004016110e090612849565b60405180910390fd5b600160009054906101000a900473ffffffffffffffffffffffffffffffffffffffff1673ffffffffffffffffffffffffffffffffffffffff16636a627842846040518263ffffffff1660e01b8152600401611144919061262b565b600060405180830381600087803b15801561115e57600080fd5b505af1158015611172573d6000803e3d6000fd5b50505050600160009054906101000a900473ffffffffffffffffffffffffffffffffffffffff1673ffffffffffffffffffffffffffffffffffffffff166323b872dd3330846040518463ffffffff1660e01b81526004016111d59392919061259b565b600060405180830381600087803b1580156111ef57600080fd5b505af1158015611203573d6000803e3d6000fd5b505050506003600081548092919061121a90612675565b91905055506040518060e001604052806003548152602001600160009054906101000a900473ffffffffffffffffffffffffffffffffffffffff1673ffffffffffffffffffffffffffffffffffffffff1681526020018281526020018381526020013373ffffffffffffffffffffffffffffffffffffffff168152602001600015158152602001600015158152506004600060035481526020019081526020016000206000820151816000015560208201518160010160006101000a81548173ffffffffffffffffffffffffffffffffffffffff021916908373ffffffffffffffffffffffffffffffffffffffff160217905550604082015181600201556060820151816003015560808201518160040160006101000a81548173ffffffffffffffffffffffffffffffffffffffff021916908373ffffffffffffffffffffffffffffffffffffffff16021790555060a08201518160040160146101000a81548160ff02191690831515021790555060c08201518160040160156101000a81548160ff0219169083151502179055509050503373ffffffffffffffffffffffffffffffffffffffff16600160009054906101000a900473ffffffffffffffffffffffffffffffffffffffff1673ffffffffffffffffffffffffffffffffffffffff167f8e2aa5a71c1bfbb6174cd8eb44ba4640d58d09aab75b7099dab4f31da3f05b4c6003548486600060405161143494939291906126be565b60405180910390a3611444611e8d565b505050565b7f000000000000000000000000000000000000000000000000000000000000000081565b6005602052816000526040600020818154811061148957600080fd5b9060005260206000209060050201600091509150508060000154908060010160009054906101000a900473ffffffffffffffffffffffffffffffffffffffff16908060020154908060030154908060040160009054906101000a900473ffffffffffffffffffffffffffffffffffffffff16905085565b60046020528060005260406000206000915090508060000154908060010160009054906101000a900473ffffffffffffffffffffffffffffffffffffffff16908060020154908060030154908060040160009054906101000a900473ffffffffffffffffffffffffffffffffffffffff16908060040160149054906101000a900460ff16908060040160159054906101000a900460ff16905087565b60006004600084815260200190815260200160002090508060040160009054906101000a900473ffffffffffffffffffffffffffffffffffffffff1673ffffffffffffffffffffffffffffffffffffffff163373ffffffffffffffffffffffffffffffffffffffff1614611645576040517f08c379a000000000000000000000000000000000000000000000000000000000815260040161163c90612412565b60405180910390fd5b60018160040160156101000a81548160ff021916908315150217905550818160030181905550505050565b600060647f000000000000000000000000000000000000000000000000000000000000000060646116a19190612869565b60046000858152602001908152602001600020600301546116c291906128bf565b6116cc9190612948565b9050919050565b6116db611e3d565b60006116e683611670565b9050600060046000858152602001908152602001600020905060008411801561171157506003548411155b611750576040517f08c379a0000000000000000000000000000000000000000000000000000000008152600401611747906129c5565b60405180910390fd5b82816003015414611796576040517f08c379a000000000000000000000000000000000000000000000000000000000815260040161178d90612a57565b60405180910390fd5b813410156117d9576040517f08c379a00000000000000000000000000000000000000000000000000000000081526004016117d090612ae9565b60405180910390fd5b6000600660009054906101000a900473ffffffffffffffffffffffffffffffffffffffff1673ffffffffffffffffffffffffffffffffffffffff1663dd62ed3e33306040518363ffffffff1660e01b81526004016118389291906124c4565b60206040518083038186803b15801561185057600080fd5b505afa158015611864573d6000803e3d6000fd5b505050506040513d601f19601f820116820180604052508101906118889190612502565b9050838110156118cd576040517f08c379a00000000000000000000000000000000000000000000000000000000081526004016118c49061257b565b60405180910390fd5b600660009054906101000a900473ffffffffffffffffffffffffffffffffffffffff1673ffffffffffffffffffffffffffffffffffffffff166323b872dd338460040160009054906101000a900473ffffffffffffffffffffffffffffffffffffffff16876040518463ffffffff1660e01b815260040161195093929190612b2a565b602060405180830381600087803b15801561196a57600080fd5b505af115801561197e573d6000803e3d6000fd5b505050506040513d601f19601f820116820180604052508101906119a291906125fe565b50600660009054906101000a900473ffffffffffffffffffffffffffffffffffffffff1673ffffffffffffffffffffffffffffffffffffffff166323b872dd337f0000000000000000000000000000000000000000000000000000000000000000876040518463ffffffff1660e01b8152600401611a2293929190612b2a565b602060405180830381600087803b158015611a3c57600080fd5b505af1158015611a50573d6000803e3d6000fd5b505050506040513d601f19601f82011682018060405250810190611a7491906125fe565b5060018260040160146101000a81548160ff0219169083151502179055508160010160009054906101000a900473ffffffffffffffffffffffffffffffffffffffff1673ffffffffffffffffffffffffffffffffffffffff166323b872dd303385600201546040518463ffffffff1660e01b8152600401611af79392919061259b565b600060405180830381600087803b158015611b1157600080fd5b505af1158015611b25573d6000803e3d6000fd5b50505050600560008360040160009054906101000a900473ffffffffffffffffffffffffffffffffffffffff1673ffffffffffffffffffffffffffffffffffffffff1673ffffffffffffffffffffffffffffffffffffffff1681526020019081526020016000206040518060a0016040528084600001548152602001600160009054906101000a900473ffffffffffffffffffffffffffffffffffffffff1673ffffffffffffffffffffffffffffffffffffffff168152602001878152602001846003015481526020018460040160009054906101000a900473ffffffffffffffffffffffffffffffffffffffff1673ffffffffffffffffffffffffffffffffffffffff1681525090806001815401808255809150506001900390600052602060002090600502016000909190919091506000820151816000015560208201518160010160006101000a81548173ffffffffffffffffffffffffffffffffffffffff021916908373ffffffffffffffffffffffffffffffffffffffff160217905550604082015181600201556060820151816003015560808201518160040160006101000a81548173ffffffffffffffffffffffffffffffffffffffff021916908373ffffffffffffffffffffffffffffffffffffffff1602179055505050338260040160006101000a81548173ffffffffffffffffffffffffffffffffffffffff021916908373ffffffffffffffffffffffffffffffffffffffff16021790555060008260040160156101000a81548160ff021916908315150217905550505050611d6f611e8d565b5050565b60006004600083815260200190815260200160002090508060040160009054906101000a900473ffffffffffffffffffffffffffffffffffffffff1673ffffffffffffffffffffffffffffffffffffffff163373ffffffffffffffffffffffffffffffffffffffff1614611e1c576040517f08c379a0000000000000000000000000000000000000000000000000000000008152600401611e1390612412565b60405180910390fd5b60018160040160156101000a81548160ff0219169083151502179055505050565b60026000541415611e83576040517f08c379a0000000000000000000000000000000000000000000000000000000008152600401611e7a90612bad565b60405180910390fd5b6002600081905550565b6001600081905550565b600081519050919050565b600082825260208201905092915050565b60005b83811015611ed1578082015181840152602081019050611eb6565b83811115611ee0576000848401525b50505050565b6000601f19601f8301169050919050565b6000611f0282611e97565b611f0c8185611ea2565b9350611f1c818560208601611eb3565b611f2581611ee6565b840191505092915050565b60006020820190508181036000830152611f4a8184611ef7565b905092915050565b600080fd5b6000819050919050565b611f6a81611f57565b8114611f7557600080fd5b50565b600081359050611f8781611f61565b92915050565b600060208284031215611fa357611fa2611f52565b5b6000611fb184828501611f78565b91505092915050565b60008060408385031215611fd157611fd0611f52565b5b6000611fdf85828601611f78565b9250506020611ff085828601611f78565b9150509250929050565b600073ffffffffffffffffffffffffffffffffffffffff82169050919050565b6000819050919050565b600061203f61203a61203584611ffa565b61201a565b611ffa565b9050919050565b600061205182612024565b9050919050565b600061206382612046565b9050919050565b61207381612058565b82525050565b600060208201905061208e600083018461206a565b92915050565b600061209f82611ffa565b9050919050565b6120af81612094565b81146120ba57600080fd5b50565b6000813590506120cc816120a6565b92915050565b600080600080608085870312156120ec576120eb611f52565b5b60006120fa878288016120bd565b945050602061210b87828801611f78565b935050604061211c87828801611f78565b925050606061212d87828801611f78565b91505092959194509250565b61214281611f57565b82525050565b600060208201905061215d6000830184612139565b92915050565b60008060006060848603121561217c5761217b611f52565b5b600061218a868287016120bd565b935050602061219b86828701611f78565b92505060406121ac86828701611f78565b9150509250925092565b60006121c182611ffa565b9050919050565b6121d1816121b6565b82525050565b60006020820190506121ec60008301846121c8565b92915050565b6000806040838503121561220957612208611f52565b5b6000612217858286016120bd565b925050602061222885828601611f78565b9150509250929050565b600061223d82612046565b9050919050565b61224d81612232565b82525050565b61225c81612094565b82525050565b600060a0820190506122776000830188612139565b6122846020830187612244565b6122916040830186612139565b61229e6060830185612139565b6122ab6080830184612253565b9695505050505050565b60008115159050919050565b6122ca816122b5565b82525050565b600060e0820190506122e5600083018a612139565b6122f26020830189612244565b6122ff6040830188612139565b61230c6060830187612139565b61231960808301866121c8565b61232660a08301856122c1565b61233360c08301846122c1565b98975050505050505050565b7f4e487b7100000000000000000000000000000000000000000000000000000000600052602260045260246000fd5b6000600282049050600182168061238657607f821691505b6020821081141561239a5761239961233f565b5b50919050565b7f4f6e6c7920746865206f776e65722063616e206c6973742074686520746f6b6560008201527f6e20666f722073616c6500000000000000000000000000000000000000000000602082015250565b60006123fc602a83611ea2565b9150612407826123a0565b604082019050919050565b6000602082019050818103600083015261242b816123ef565b9050919050565b7f4f6e6c7920746865206f776e65722063616e207769746864726177204574686560008201527f722066726f6d20746865206d61726b6574706c61636500000000000000000000602082015250565b600061248e603683611ea2565b915061249982612432565b604082019050919050565b600060208201905081810360008301526124bd81612481565b9050919050565b60006040820190506124d96000830185612253565b6124e66020830184612253565b9392505050565b6000815190506124fc81611f61565b92915050565b60006020828403121561251857612517611f52565b5b6000612526848285016124ed565b91505092915050565b7f496e73756666696369656e7420746f6b656e20616c6c6f77616e636500000000600082015250565b6000612565601c83611ea2565b91506125708261252f565b602082019050919050565b6000602082019050818103600083015261259481612558565b9050919050565b60006060820190506125b06000830186612253565b6125bd6020830185612253565b6125ca6040830184612139565b949350505050565b6125db816122b5565b81146125e657600080fd5b50565b6000815190506125f8816125d2565b92915050565b60006020828403121561261457612613611f52565b5b6000612622848285016125e9565b91505092915050565b60006020820190506126406000830184612253565b92915050565b7f4e487b7100000000000000000000000000000000000000000000000000000000600052601160045260246000fd5b600061268082611f57565b91507fffffffffffffffffffffffffffffffffffffffffffffffffffffffffffffffff8214156126b3576126b2612646565b5b600182019050919050565b60006080820190506126d36000830187612139565b6126e06020830186612139565b6126ed6040830185612139565b6126fa60608301846122c1565b95945050505050565b7f53656e742045746865722076616c756520646f6573206e6f74206d617463682060008201527f7072696365000000000000000000000000000000000000000000000000000000602082015250565b600061275f602583611ea2565b915061276a82612703565b604082019050919050565b6000602082019050818103600083015261278e81612752565b9050919050565b6000815190506127a4816120a6565b92915050565b6000602082840312156127c0576127bf611f52565b5b60006127ce84828501612795565b91505092915050565b7f45746865722076616c7565206d7573742062652067726561746572207468616e60008201527f2030000000000000000000000000000000000000000000000000000000000000602082015250565b6000612833602283611ea2565b915061283e826127d7565b604082019050919050565b6000602082019050818103600083015261286281612826565b9050919050565b600061287482611f57565b915061287f83611f57565b9250827fffffffffffffffffffffffffffffffffffffffffffffffffffffffffffffffff038211156128b4576128b3612646565b5b828201905092915050565b60006128ca82611f57565b91506128d583611f57565b9250817fffffffffffffffffffffffffffffffffffffffffffffffffffffffffffffffff048311821515161561290e5761290d612646565b5b828202905092915050565b7f4e487b7100000000000000000000000000000000000000000000000000000000600052601260045260246000fd5b600061295382611f57565b915061295e83611f57565b92508261296e5761296d612919565b5b828204905092915050565b7f6974656d20646f65736e27742065786973740000000000000000000000000000600082015250565b60006129af601283611ea2565b91506129ba82612979565b602082019050919050565b600060208201905081810360008301526129de816129a2565b9050919050565b7f546f6b656e20616d6f756e7420646f6573206e6f74206d61746368207072696360008201527f6500000000000000000000000000000000000000000000000000000000000000602082015250565b6000612a41602183611ea2565b9150612a4c826129e5565b604082019050919050565b60006020820190508181036000830152612a7081612a34565b9050919050565b7f6e6f7420656e6f75676820657468657220746f20636f766572206974656d207060008201527f7269636520616e64206d61726b65742066656500000000000000000000000000602082015250565b6000612ad3603383611ea2565b9150612ade82612a77565b604082019050919050565b60006020820190508181036000830152612b0281612ac6565b9050919050565b6000612b1482612046565b9050919050565b612b2481612b09565b82525050565b6000606082019050612b3f6000830186612253565b612b4c6020830185612b1b565b612b596040830184612139565b949350505050565b7f5265656e7472616e637947756172643a207265656e7472616e742063616c6c00600082015250565b6000612b97601f83611ea2565b9150612ba282612b61565b602082019050919050565b60006020820190508181036000830152612bc681612b8a565b905091905056fea26469706673582212200fa7c77e222ac80068e52c887beb35b37615144592424c71df8badafbceea9c064736f6c63430008090033",
  "linkReferences": {},
  "deployedLinkReferences": {}
}