{
    "_format": "hh-sol-artifact-1",
    "contractName": "Transactions",
    "sourceName": "contracts/Transactions.sol",
    "abi": [
        {
            "anonymous": false,
            "inputs": [
                {
                    "indexed": false,
                    "internalType": "address",
                    "name": "from",
                    "type": "address"
                },
                {
                    "indexed": false,
                    "internalType": "address",
                    "name": "reciever",
                    "type": "address"
                },
                {
                    "indexed": false,
                    "internalType": "uint256",
                    "name": "amount",
                    "type": "uint256"
                },
                {
                    "indexed": false,
                    "internalType": "uint256",
                    "name": "timestamp",
                    "type": "uint256"
                },
                {
                    "indexed": false,
                    "internalType": "string",
                    "name": "description",
                    "type": "string"
                }
            ],
            "name": "Transfer",
            "type": "event"
        },
        {
            "inputs": [
                {
                    "internalType": "address payable",
                    "name": "reciever",
                    "type": "address"
                },
                {
                    "internalType": "uint256",
                    "name": "amount",
                    "type": "uint256"
                },
                {
                    "internalType": "string",
                    "name": "description",
                    "type": "string"
                }
            ],
            "name": "addTranferInfo",
            "outputs": [],
            "stateMutability": "nonpayable",
            "type": "function"
        },
        {
            "inputs": [],
            "name": "getAllTranferInfo",
            "outputs": [
                {
                    "components": [
                        {
                            "internalType": "address",
                            "name": "sender",
                            "type": "address"
                        },
                        {
                            "internalType": "address",
                            "name": "reciever",
                            "type": "address"
                        },
                        {
                            "internalType": "string",
                            "name": "description",
                            "type": "string"
                        },
                        {
                            "internalType": "uint256",
                            "name": "amount",
                            "type": "uint256"
                        },
                        {
                            "internalType": "uint256",
                            "name": "timestamp",
                            "type": "uint256"
                        }
                    ],
                    "internalType": "struct Transactions.TransferStruct[]",
                    "name": "",
                    "type": "tuple[]"
                }
            ],
            "stateMutability": "view",
            "type": "function"
        },
        {
            "inputs": [],
            "name": "getTransactionCount",
            "outputs": [
                {
                    "internalType": "uint256",
                    "name": "",
                    "type": "uint256"
                }
            ],
            "stateMutability": "view",
            "type": "function"
        }
    ],
    "bytecode": "0x608060405234801561001057600080fd5b5061099f806100206000396000f3fe608060405234801561001057600080fd5b50600436106100415760003560e01c80632e7700f0146100465780634eae3ad9146100645780637a9adcbc14610080575b600080fd5b61004e61009e565b60405161005b91906102fe565b60405180910390f35b61007e600480360381019061007991906104fd565b6100a3565b005b61008861023d565b604051610095919061075c565b60405180910390f35b600090565b6000808154809291906100b5906107ad565b919050555060016040518060a001604052803373ffffffffffffffffffffffffffffffffffffffff1681526020018573ffffffffffffffffffffffffffffffffffffffff16815260200183815260200184815260200142815250908060018154018082558091505060019003906000526020600020906005020160009091909190915060008201518160000160006101000a81548173ffffffffffffffffffffffffffffffffffffffff021916908373ffffffffffffffffffffffffffffffffffffffff16021790555060208201518160010160006101000a81548173ffffffffffffffffffffffffffffffffffffffff021916908373ffffffffffffffffffffffffffffffffffffffff16021790555060408201518160020190805190602001906101e2929190610242565b50606082015181600301556080820151816004015550507f6f61ee1206c525dcbefe79039d2f7b768c9ad70030c51ae6623cd74492e8a6d333848442856040516102309594939291906108ae565b60405180910390a1505050565b606090565b82805461024e90610937565b90600052602060002090601f01602090048101928261027057600085556102b7565b82601f1061028957805160ff19168380011785556102b7565b828001600101855582156102b7579182015b828111156102b657825182559160200191906001019061029b565b5b5090506102c491906102c8565b5090565b5b808211156102e15760008160009055506001016102c9565b5090565b6000819050919050565b6102f8816102e5565b82525050565b600060208201905061031360008301846102ef565b92915050565b6000604051905090565b600080fd5b600080fd5b600073ffffffffffffffffffffffffffffffffffffffff82169050919050565b60006103588261032d565b9050919050565b6103688161034d565b811461037357600080fd5b50565b6000813590506103858161035f565b92915050565b610394816102e5565b811461039f57600080fd5b50565b6000813590506103b18161038b565b92915050565b600080fd5b600080fd5b6000601f19601f8301169050919050565b7f4e487b7100000000000000000000000000000000000000000000000000000000600052604160045260246000fd5b61040a826103c1565b810181811067ffffffffffffffff82111715610429576104286103d2565b5b80604052505050565b600061043c610319565b90506104488282610401565b919050565b600067ffffffffffffffff821115610468576104676103d2565b5b610471826103c1565b9050602081019050919050565b82818337600083830152505050565b60006104a061049b8461044d565b610432565b9050828152602081018484840111156104bc576104bb6103bc565b5b6104c784828561047e565b509392505050565b600082601f8301126104e4576104e36103b7565b5b81356104f484826020860161048d565b91505092915050565b60008060006060848603121561051657610515610323565b5b600061052486828701610376565b9350506020610535868287016103a2565b925050604084013567ffffffffffffffff81111561055657610555610328565b5b610562868287016104cf565b9150509250925092565b600081519050919050565b600082825260208201905092915050565b6000819050602082019050919050565b60006105a38261032d565b9050919050565b6105b381610598565b82525050565b600081519050919050565b600082825260208201905092915050565b60005b838110156105f35780820151818401526020810190506105d8565b83811115610602576000848401525b50505050565b6000610613826105b9565b61061d81856105c4565b935061062d8185602086016105d5565b610636816103c1565b840191505092915050565b61064a816102e5565b82525050565b600060a08301600083015161066860008601826105aa565b50602083015161067b60208601826105aa565b50604083015184820360408601526106938282610608565b91505060608301516106a86060860182610641565b5060808301516106bb6080860182610641565b508091505092915050565b60006106d28383610650565b905092915050565b6000602082019050919050565b60006106f28261056c565b6106fc8185610577565b93508360208202850161070e85610588565b8060005b8581101561074a578484038952815161072b85826106c6565b9450610736836106da565b925060208a01995050600181019050610712565b50829750879550505050505092915050565b6000602082019050818103600083015261077681846106e7565b905092915050565b7f4e487b7100000000000000000000000000000000000000000000000000000000600052601160045260246000fd5b60006107b8826102e5565b91507fffffffffffffffffffffffffffffffffffffffffffffffffffffffffffffffff8214156107eb576107ea61077e565b5b600182019050919050565b6107ff81610598565b82525050565b6000819050919050565b600061082a6108256108208461032d565b610805565b61032d565b9050919050565b600061083c8261080f565b9050919050565b600061084e82610831565b9050919050565b61085e81610843565b82525050565b600082825260208201905092915050565b6000610880826105b9565b61088a8185610864565b935061089a8185602086016105d5565b6108a3816103c1565b840191505092915050565b600060a0820190506108c360008301886107f6565b6108d06020830187610855565b6108dd60408301866102ef565b6108ea60608301856102ef565b81810360808301526108fc8184610875565b90509695505050505050565b7f4e487b7100000000000000000000000000000000000000000000000000000000600052602260045260246000fd5b6000600282049050600182168061094f57607f821691505b6020821081141561096357610962610908565b5b5091905056fea2646970667358221220e649179c8fca7aab312f0481d2696984089c76144cd1a9cf79b0f5c2727ff1c364736f6c63430008090033",
    "linkReferences": {},
    "deployedLinkReferences": {}
}