{
  "_format": "hh-sol-artifact-1",
  "contractName": "Transactions",
  "sourceName": "contracts/Transactions.sol",
  "abi": [
    {
      "anonymous": false,
      "inputs": [
        {
          "indexed": false,
          "internalType": "address",
          "name": "from",
          "type": "address"
        },
        {
          "indexed": false,
          "internalType": "address",
          "name": "reciever",
          "type": "address"
        },
        {
          "indexed": false,
          "internalType": "uint256",
          "name": "amount",
          "type": "uint256"
        },
        {
          "indexed": false,
          "internalType": "uint256",
          "name": "timestamp",
          "type": "uint256"
        },
        {
          "indexed": false,
          "internalType": "string",
          "name": "description",
          "type": "string"
        },
        {
          "indexed": false,
          "internalType": "string",
          "name": "transactionHash",
          "type": "string"
        }
      ],
      "name": "Transfer",
      "type": "event"
    },
    {
      "inputs": [
        {
          "internalType": "address payable",
          "name": "reciever",
          "type": "address"
        },
        {
          "internalType": "uint256",
          "name": "amount",
          "type": "uint256"
        },
        {
          "internalType": "string",
          "name": "description",
          "type": "string"
        },
        {
          "internalType": "string",
          "name": "transactionHash",
          "type": "string"
        }
      ],
      "name": "addTransferInfo",
      "outputs": [],
      "stateMutability": "nonpayable",
      "type": "function"
    },
    {
      "inputs": [],
      "name": "getAllTransactions",
      "outputs": [
        {
          "components": [
            {
              "internalType": "address",
              "name": "sender",
              "type": "address"
            },
            {
              "internalType": "address",
              "name": "reciever",
              "type": "address"
            },
            {
              "internalType": "string",
              "name": "description",
              "type": "string"
            },
            {
              "internalType": "string",
              "name": "transactionHash",
              "type": "string"
            },
            {
              "internalType": "uint256",
              "name": "amount",
              "type": "uint256"
            },
            {
              "internalType": "uint256",
              "name": "timestamp",
              "type": "uint256"
            }
          ],
          "internalType": "struct Transactions.TransferStruct[]",
          "name": "",
          "type": "tuple[]"
        }
      ],
      "stateMutability": "view",
      "type": "function"
    },
    {
      "inputs": [],
      "name": "getTransactionCount",
      "outputs": [
        {
          "internalType": "uint256",
          "name": "",
          "type": "uint256"
        }
      ],
      "stateMutability": "view",
      "type": "function"
    },
    {
      "inputs": [
        {
          "internalType": "address",
          "name": "",
          "type": "address"
        },
        {
          "internalType": "uint256",
          "name": "",
          "type": "uint256"
        }
      ],
      "name": "transactions",
      "outputs": [
        {
          "internalType": "address",
          "name": "sender",
          "type": "address"
        },
        {
          "internalType": "address",
          "name": "reciever",
          "type": "address"
        },
        {
          "internalType": "string",
          "name": "description",
          "type": "string"
        },
        {
          "internalType": "string",
          "name": "transactionHash",
          "type": "string"
        },
        {
          "internalType": "uint256",
          "name": "amount",
          "type": "uint256"
        },
        {
          "internalType": "uint256",
          "name": "timestamp",
          "type": "uint256"
        }
      ],
      "stateMutability": "view",
      "type": "function"
    }
  ],
  "bytecode": "0x608060405234801561001057600080fd5b50610fa4806100206000396000f3fe608060405234801561001057600080fd5b506004361061004c5760003560e01c806306935ea214610051578063145381281461006d57806327506f53146100a25780632e7700f0146100c0575b600080fd5b61006b6004803603810190610066919061099e565b6100de565b005b61008760048036038101906100829190610a7b565b6102db565b60405161009996959493929190610b61565b60405180910390f35b6100aa610484565b6040516100b79190610d8a565b60405180910390f35b6100c8610704565b6040516100d59190610dac565b60405180910390f35b6000808154809291906100f090610df6565b9190505550600160003373ffffffffffffffffffffffffffffffffffffffff1673ffffffffffffffffffffffffffffffffffffffff1681526020019081526020016000206040518060c001604052803373ffffffffffffffffffffffffffffffffffffffff1681526020018673ffffffffffffffffffffffffffffffffffffffff16815260200184815260200183815260200185815260200142815250908060018154018082558091505060019003906000526020600020906006020160009091909190915060008201518160000160006101000a81548173ffffffffffffffffffffffffffffffffffffffff021916908373ffffffffffffffffffffffffffffffffffffffff16021790555060208201518160010160006101000a81548173ffffffffffffffffffffffffffffffffffffffff021916908373ffffffffffffffffffffffffffffffffffffffff160217905550604082015181600201908051906020019061026092919061070d565b50606082015181600301908051906020019061027d92919061070d565b506080820151816004015560a0820151816005015550507f1e92c3b94e87106bb5e1f3493c1debe5003450085b72f643a2839c3e4dd25eb63385854286866040516102cd96959493929190610e9e565b60405180910390a150505050565b600160205281600052604060002081815481106102f757600080fd5b9060005260206000209060060201600091509150508060000160009054906101000a900473ffffffffffffffffffffffffffffffffffffffff16908060010160009054906101000a900473ffffffffffffffffffffffffffffffffffffffff169080600201805461036790610f3c565b80601f016020809104026020016040519081016040528092919081815260200182805461039390610f3c565b80156103e05780601f106103b5576101008083540402835291602001916103e0565b820191906000526020600020905b8154815290600101906020018083116103c357829003601f168201915b5050505050908060030180546103f590610f3c565b80601f016020809104026020016040519081016040528092919081815260200182805461042190610f3c565b801561046e5780601f106104435761010080835404028352916020019161046e565b820191906000526020600020905b81548152906001019060200180831161045157829003601f168201915b5050505050908060040154908060050154905086565b6060600160003373ffffffffffffffffffffffffffffffffffffffff1673ffffffffffffffffffffffffffffffffffffffff168152602001908152602001600020805480602002602001604051908101604052809291908181526020016000905b828210156106fb57838290600052602060002090600602016040518060c00160405290816000820160009054906101000a900473ffffffffffffffffffffffffffffffffffffffff1673ffffffffffffffffffffffffffffffffffffffff1673ffffffffffffffffffffffffffffffffffffffff1681526020016001820160009054906101000a900473ffffffffffffffffffffffffffffffffffffffff1673ffffffffffffffffffffffffffffffffffffffff1673ffffffffffffffffffffffffffffffffffffffff1681526020016002820180546105c490610f3c565b80601f01602080910402602001604051908101604052809291908181526020018280546105f090610f3c565b801561063d5780601f106106125761010080835404028352916020019161063d565b820191906000526020600020905b81548152906001019060200180831161062057829003601f168201915b5050505050815260200160038201805461065690610f3c565b80601f016020809104026020016040519081016040528092919081815260200182805461068290610f3c565b80156106cf5780601f106106a4576101008083540402835291602001916106cf565b820191906000526020600020905b8154815290600101906020018083116106b257829003601f168201915b5050505050815260200160048201548152602001600582015481525050815260200190600101906104e5565b50505050905090565b60008054905090565b82805461071990610f3c565b90600052602060002090601f01602090048101928261073b5760008555610782565b82601f1061075457805160ff1916838001178555610782565b82800160010185558215610782579182015b82811115610781578251825591602001919060010190610766565b5b50905061078f9190610793565b5090565b5b808211156107ac576000816000905550600101610794565b5090565b6000604051905090565b600080fd5b600080fd5b600073ffffffffffffffffffffffffffffffffffffffff82169050919050565b60006107ef826107c4565b9050919050565b6107ff816107e4565b811461080a57600080fd5b50565b60008135905061081c816107f6565b92915050565b6000819050919050565b61083581610822565b811461084057600080fd5b50565b6000813590506108528161082c565b92915050565b600080fd5b600080fd5b6000601f19601f8301169050919050565b7f4e487b7100000000000000000000000000000000000000000000000000000000600052604160045260246000fd5b6108ab82610862565b810181811067ffffffffffffffff821117156108ca576108c9610873565b5b80604052505050565b60006108dd6107b0565b90506108e982826108a2565b919050565b600067ffffffffffffffff82111561090957610908610873565b5b61091282610862565b9050602081019050919050565b82818337600083830152505050565b600061094161093c846108ee565b6108d3565b90508281526020810184848401111561095d5761095c61085d565b5b61096884828561091f565b509392505050565b600082601f83011261098557610984610858565b5b813561099584826020860161092e565b91505092915050565b600080600080608085870312156109b8576109b76107ba565b5b60006109c68782880161080d565b94505060206109d787828801610843565b935050604085013567ffffffffffffffff8111156109f8576109f76107bf565b5b610a0487828801610970565b925050606085013567ffffffffffffffff811115610a2557610a246107bf565b5b610a3187828801610970565b91505092959194509250565b6000610a48826107c4565b9050919050565b610a5881610a3d565b8114610a6357600080fd5b50565b600081359050610a7581610a4f565b92915050565b60008060408385031215610a9257610a916107ba565b5b6000610aa085828601610a66565b9250506020610ab185828601610843565b9150509250929050565b610ac481610a3d565b82525050565b600081519050919050565b600082825260208201905092915050565b60005b83811015610b04578082015181840152602081019050610ae9565b83811115610b13576000848401525b50505050565b6000610b2482610aca565b610b2e8185610ad5565b9350610b3e818560208601610ae6565b610b4781610862565b840191505092915050565b610b5b81610822565b82525050565b600060c082019050610b766000830189610abb565b610b836020830188610abb565b8181036040830152610b958187610b19565b90508181036060830152610ba98186610b19565b9050610bb86080830185610b52565b610bc560a0830184610b52565b979650505050505050565b600081519050919050565b600082825260208201905092915050565b6000819050602082019050919050565b610c0581610a3d565b82525050565b600082825260208201905092915050565b6000610c2782610aca565b610c318185610c0b565b9350610c41818560208601610ae6565b610c4a81610862565b840191505092915050565b610c5e81610822565b82525050565b600060c083016000830151610c7c6000860182610bfc565b506020830151610c8f6020860182610bfc565b5060408301518482036040860152610ca78282610c1c565b91505060608301518482036060860152610cc18282610c1c565b9150506080830151610cd66080860182610c55565b5060a0830151610ce960a0860182610c55565b508091505092915050565b6000610d008383610c64565b905092915050565b6000602082019050919050565b6000610d2082610bd0565b610d2a8185610bdb565b935083602082028501610d3c85610bec565b8060005b85811015610d785784840389528151610d598582610cf4565b9450610d6483610d08565b925060208a01995050600181019050610d40565b50829750879550505050505092915050565b60006020820190508181036000830152610da48184610d15565b905092915050565b6000602082019050610dc16000830184610b52565b92915050565b7f4e487b7100000000000000000000000000000000000000000000000000000000600052601160045260246000fd5b6000610e0182610822565b91507fffffffffffffffffffffffffffffffffffffffffffffffffffffffffffffffff821415610e3457610e33610dc7565b5b600182019050919050565b6000819050919050565b6000610e64610e5f610e5a846107c4565b610e3f565b6107c4565b9050919050565b6000610e7682610e49565b9050919050565b6000610e8882610e6b565b9050919050565b610e9881610e7d565b82525050565b600060c082019050610eb36000830189610abb565b610ec06020830188610e8f565b610ecd6040830187610b52565b610eda6060830186610b52565b8181036080830152610eec8185610b19565b905081810360a0830152610f008184610b19565b9050979650505050505050565b7f4e487b7100000000000000000000000000000000000000000000000000000000600052602260045260246000fd5b60006002820490506001821680610f5457607f821691505b60208210811415610f6857610f67610f0d565b5b5091905056fea26469706673582212203ad45a09e6572503d74aa05917ba6e365b88093670bce81df7a1f7a8720a077f64736f6c63430008090033",
  "linkReferences": {},
  "deployedLinkReferences": {}
}