{
  "_format": "hh-sol-artifact-1",
  "contractName": "YtkNftMarketplace",
  "sourceName": "contracts/YTKMarketplace.sol",
  "abi": [
    {
      "inputs": [
        {
          "internalType": "uint256",
          "name": "_feePercent",
          "type": "uint256"
        },
        {
          "internalType": "address",
          "name": "_ytkNftAddress",
          "type": "address"
        },
        {
          "internalType": "address",
          "name": "_customTokenAddress",
          "type": "address"
        }
      ],
      "stateMutability": "nonpayable",
      "type": "constructor"
    },
    {
      "anonymous": false,
      "inputs": [
        {
          "indexed": false,
          "internalType": "uint256",
          "name": "itemId",
          "type": "uint256"
        },
        {
          "indexed": true,
          "internalType": "address",
          "name": "nft",
          "type": "address"
        },
        {
          "indexed": false,
          "internalType": "uint256",
          "name": "tokenId",
          "type": "uint256"
        },
        {
          "indexed": false,
          "internalType": "uint256",
          "name": "price",
          "type": "uint256"
        },
        {
          "indexed": true,
          "internalType": "address",
          "name": "seller",
          "type": "address"
        },
        {
          "indexed": true,
          "internalType": "address",
          "name": "buyer",
          "type": "address"
        }
      ],
      "name": "Bought",
      "type": "event"
    },
    {
      "anonymous": false,
      "inputs": [
        {
          "indexed": false,
          "internalType": "uint256",
          "name": "newFeePercentage",
          "type": "uint256"
        }
      ],
      "name": "FeePercentageChanged",
      "type": "event"
    },
    {
      "anonymous": false,
      "inputs": [
        {
          "indexed": false,
          "internalType": "uint256",
          "name": "itemId",
          "type": "uint256"
        },
        {
          "indexed": true,
          "internalType": "address",
          "name": "nft",
          "type": "address"
        },
        {
          "indexed": false,
          "internalType": "uint256",
          "name": "tokenId",
          "type": "uint256"
        },
        {
          "indexed": false,
          "internalType": "uint256",
          "name": "price",
          "type": "uint256"
        },
        {
          "indexed": false,
          "internalType": "bool",
          "name": "listed",
          "type": "bool"
        },
        {
          "indexed": true,
          "internalType": "address",
          "name": "seller",
          "type": "address"
        }
      ],
      "name": "Offered",
      "type": "event"
    },
    {
      "anonymous": false,
      "inputs": [
        {
          "indexed": false,
          "internalType": "uint256",
          "name": "itemId",
          "type": "uint256"
        },
        {
          "indexed": false,
          "internalType": "contract IERC721",
          "name": "nft",
          "type": "address"
        },
        {
          "indexed": true,
          "internalType": "uint256",
          "name": "tokenId",
          "type": "uint256"
        },
        {
          "indexed": false,
          "internalType": "uint256",
          "name": "price",
          "type": "uint256"
        },
        {
          "indexed": true,
          "internalType": "address",
          "name": "seller",
          "type": "address"
        },
        {
          "indexed": true,
          "internalType": "address",
          "name": "buyer",
          "type": "address"
        }
      ],
      "name": "SoldNewItem",
      "type": "event"
    },
    {
      "inputs": [
        {
          "internalType": "contract IERC721",
          "name": "_ytkNft",
          "type": "address"
        },
        {
          "internalType": "uint256",
          "name": "_tokenId",
          "type": "uint256"
        }
      ],
      "name": "buyWithEther",
      "outputs": [],
      "stateMutability": "payable",
      "type": "function"
    },
    {
      "inputs": [
        {
          "internalType": "contract IERC721",
          "name": "_ytkNft",
          "type": "address"
        },
        {
          "internalType": "uint256",
          "name": "_tokenId",
          "type": "uint256"
        },
        {
          "internalType": "uint256",
          "name": "_tokenAmount",
          "type": "uint256"
        }
      ],
      "name": "buyWithYungToken",
      "outputs": [],
      "stateMutability": "nonpayable",
      "type": "function"
    },
    {
      "inputs": [],
      "name": "feePercent",
      "outputs": [
        {
          "internalType": "uint256",
          "name": "",
          "type": "uint256"
        }
      ],
      "stateMutability": "view",
      "type": "function"
    },
    {
      "inputs": [
        {
          "internalType": "uint256",
          "name": "_itemId",
          "type": "uint256"
        }
      ],
      "name": "getTotalPrice",
      "outputs": [
        {
          "internalType": "uint256",
          "name": "",
          "type": "uint256"
        }
      ],
      "stateMutability": "view",
      "type": "function"
    },
    {
      "inputs": [],
      "name": "itemCount",
      "outputs": [
        {
          "internalType": "uint256",
          "name": "",
          "type": "uint256"
        }
      ],
      "stateMutability": "view",
      "type": "function"
    },
    {
      "inputs": [
        {
          "internalType": "uint256",
          "name": "",
          "type": "uint256"
        }
      ],
      "name": "items",
      "outputs": [
        {
          "internalType": "uint256",
          "name": "itemId",
          "type": "uint256"
        },
        {
          "internalType": "contract IERC721",
          "name": "nft",
          "type": "address"
        },
        {
          "internalType": "uint256",
          "name": "tokenId",
          "type": "uint256"
        },
        {
          "internalType": "uint256",
          "name": "price",
          "type": "uint256"
        },
        {
          "internalType": "address payable",
          "name": "seller",
          "type": "address"
        },
        {
          "internalType": "bool",
          "name": "listed",
          "type": "bool"
        }
      ],
      "stateMutability": "view",
      "type": "function"
    },
    {
      "inputs": [
        {
          "internalType": "uint256",
          "name": "_tokenId",
          "type": "uint256"
        }
      ],
      "name": "listWithEther",
      "outputs": [],
      "stateMutability": "nonpayable",
      "type": "function"
    },
    {
      "inputs": [
        {
          "internalType": "uint256",
          "name": "_tokenId",
          "type": "uint256"
        }
      ],
      "name": "listWithYungToken",
      "outputs": [],
      "stateMutability": "nonpayable",
      "type": "function"
    },
    {
      "inputs": [
        {
          "internalType": "address",
          "name": "recipient",
          "type": "address"
        },
        {
          "internalType": "uint256",
          "name": "_price",
          "type": "uint256"
        },
        {
          "internalType": "uint256",
          "name": "_nextTokenId",
          "type": "uint256"
        },
        {
          "internalType": "contract IERC721",
          "name": "_ytkNft",
          "type": "address"
        },
        {
          "internalType": "string",
          "name": "mintingType",
          "type": "string"
        }
      ],
      "name": "mintWithEther",
      "outputs": [],
      "stateMutability": "payable",
      "type": "function"
    },
    {
      "inputs": [
        {
          "internalType": "address",
          "name": "recipient",
          "type": "address"
        },
        {
          "internalType": "uint256",
          "name": "_nextTokenId",
          "type": "uint256"
        },
        {
          "internalType": "uint256",
          "name": "_tokenAmount",
          "type": "uint256"
        },
        {
          "internalType": "uint256",
          "name": "_price",
          "type": "uint256"
        },
        {
          "internalType": "contract IERC721",
          "name": "_ytkNft",
          "type": "address"
        },
        {
          "internalType": "string",
          "name": "mintingType",
          "type": "string"
        }
      ],
      "name": "mintWithYungToken",
      "outputs": [],
      "stateMutability": "nonpayable",
      "type": "function"
    },
    {
      "inputs": [
        {
          "internalType": "string",
          "name": "",
          "type": "string"
        }
      ],
      "name": "mintingFees",
      "outputs": [
        {
          "internalType": "uint256",
          "name": "",
          "type": "uint256"
        }
      ],
      "stateMutability": "view",
      "type": "function"
    },
    {
      "inputs": [],
      "name": "owner",
      "outputs": [
        {
          "internalType": "address payable",
          "name": "",
          "type": "address"
        }
      ],
      "stateMutability": "view",
      "type": "function"
    },
    {
      "inputs": [
        {
          "internalType": "uint256",
          "name": "_tokenId",
          "type": "uint256"
        },
        {
          "internalType": "uint256",
          "name": "_price",
          "type": "uint256"
        }
      ],
      "name": "reListWitEther",
      "outputs": [],
      "stateMutability": "nonpayable",
      "type": "function"
    },
    {
      "inputs": [
        {
          "internalType": "uint256",
          "name": "_tokenId",
          "type": "uint256"
        },
        {
          "internalType": "uint256",
          "name": "_tokenAmount",
          "type": "uint256"
        }
      ],
      "name": "reListWithYungToken",
      "outputs": [],
      "stateMutability": "nonpayable",
      "type": "function"
    },
    {
      "inputs": [
        {
          "internalType": "uint256",
          "name": "newFeePercentage",
          "type": "uint256"
        }
      ],
      "name": "setFeePercentage",
      "outputs": [],
      "stateMutability": "nonpayable",
      "type": "function"
    },
    {
      "inputs": [
        {
          "internalType": "string",
          "name": "mintingType",
          "type": "string"
        },
        {
          "internalType": "uint256",
          "name": "fee",
          "type": "uint256"
        }
      ],
      "name": "setMintingFee",
      "outputs": [],
      "stateMutability": "nonpayable",
      "type": "function"
    },
    {
      "inputs": [],
      "name": "soldItemCount",
      "outputs": [
        {
          "internalType": "uint256",
          "name": "",
          "type": "uint256"
        }
      ],
      "stateMutability": "view",
      "type": "function"
    },
    {
      "inputs": [
        {
          "internalType": "uint256",
          "name": "",
          "type": "uint256"
        }
      ],
      "name": "soldItems",
      "outputs": [
        {
          "internalType": "uint256",
          "name": "itemId",
          "type": "uint256"
        },
        {
          "internalType": "contract IERC721",
          "name": "nft",
          "type": "address"
        },
        {
          "internalType": "uint256",
          "name": "tokenId",
          "type": "uint256"
        },
        {
          "internalType": "uint256",
          "name": "price",
          "type": "uint256"
        },
        {
          "internalType": "address",
          "name": "seller",
          "type": "address"
        },
        {
          "internalType": "address",
          "name": "buyer",
          "type": "address"
        },
        {
          "internalType": "bool",
          "name": "sold",
          "type": "bool"
        }
      ],
      "stateMutability": "view",
      "type": "function"
    },
    {
      "inputs": [
        {
          "internalType": "uint256",
          "name": "_tokenId",
          "type": "uint256"
        }
      ],
      "name": "unListWithItem",
      "outputs": [],
      "stateMutability": "nonpayable",
      "type": "function"
    },
    {
      "inputs": [],
      "name": "withdraw",
      "outputs": [],
      "stateMutability": "nonpayable",
      "type": "function"
    }
  ],
  "bytecode": "0x60a0604052600160009054906101000a900473ffffffffffffffffffffffffffffffffffffffff16600a60006101000a81548173ffffffffffffffffffffffffffffffffffffffff021916908373ffffffffffffffffffffffffffffffffffffffff1602179055503480156200007457600080fd5b50604051620041ca380380620041ca83398181016040528101906200009a919062000262565b60016000819055503373ffffffffffffffffffffffffffffffffffffffff1660808173ffffffffffffffffffffffffffffffffffffffff16815250508260038190555066038d7ea4c680006009604051620000f59062000319565b90815260200160405180910390208190555067016345785d8a00006009604051620001209062000380565b90815260200160405180910390208190555081600660006101000a81548173ffffffffffffffffffffffffffffffffffffffff021916908373ffffffffffffffffffffffffffffffffffffffff16021790555080600160006101000a81548173ffffffffffffffffffffffffffffffffffffffff021916908373ffffffffffffffffffffffffffffffffffffffff16021790555050505062000397565b600080fd5b6000819050919050565b620001d781620001c2565b8114620001e357600080fd5b50565b600081519050620001f781620001cc565b92915050565b600073ffffffffffffffffffffffffffffffffffffffff82169050919050565b60006200022a82620001fd565b9050919050565b6200023c816200021d565b81146200024857600080fd5b50565b6000815190506200025c8162000231565b92915050565b6000806000606084860312156200027e576200027d620001bd565b5b60006200028e86828701620001e6565b9350506020620002a1868287016200024b565b9250506040620002b4868287016200024b565b9150509250925092565b600081905092915050565b7f65746865724d696e740000000000000000000000000000000000000000000000600082015250565b600062000301600983620002be565b91506200030e82620002c9565b600982019050919050565b60006200032682620002f2565b9150819050919050565b7f79746b4d696e7400000000000000000000000000000000000000000000000000600082015250565b600062000368600783620002be565b9150620003758262000330565b600782019050919050565b60006200038d8262000359565b9150819050919050565b608051613df4620003d660003960008181610faa015281816110380152818161132c015281816118a301528181611cc00152611ce40152613df46000f3fe60806040526004361061011e5760003560e01c80637fd6f15c116100a0578063c6ad81a611610064578063c6ad81a614610391578063ca7dd375146103d4578063e2fa106814610411578063fb9129b41461043a578063ff109e19146104655761011e565b80637fd6f15c146102a75780638da5cb5b146102d2578063ae06c1b7146102fd578063bfb231d214610326578063c0b32f3b146103685761011e565b80633ccfd60b116100e75780633ccfd60b146101ea578063467de9641461020157806350813fa31461022a5780636bfb0d01146102535780637deded651461027e5761011e565b8062a4e44d1461012357806301a27de01461013f5780630d6baa031461015b578063124523f61461019857806325476cb8146101c1575b600080fd5b61013d60048036038101906101389190612945565b61048e565b005b610159600480360381019061015491906129dc565b6108ff565b005b34801561016757600080fd5b50610182600480360381019061017d9190612a1c565b610d99565b60405161018f9190612a74565b60405180910390f35b3480156101a457600080fd5b506101bf60048036038101906101ba9190612a8f565b610dc7565b005b3480156101cd57600080fd5b506101e860048036038101906101e39190612abc565b610e91565b005b3480156101f657600080fd5b506101ff610fa8565b005b34801561020d57600080fd5b5061022860048036038101906102239190612a8f565b61109f565b005b34801561023657600080fd5b50610251600480360381019061024c9190612afc565b61132a565b005b34801561025f57600080fd5b506102686113df565b6040516102759190612a74565b60405180910390f35b34801561028a57600080fd5b506102a560048036038101906102a09190612b58565b6113e5565b005b3480156102b357600080fd5b506102bc611cb8565b6040516102c99190612a74565b60405180910390f35b3480156102de57600080fd5b506102e7611cbe565b6040516102f49190612bcc565b60405180910390f35b34801561030957600080fd5b50610324600480360381019061031f9190612a8f565b611ce2565b005b34801561033257600080fd5b5061034d60048036038101906103489190612a8f565b611df5565b60405161035f96959493929190612c61565b60405180910390f35b34801561037457600080fd5b5061038f600480360381019061038a9190612abc565b611e7e565b005b34801561039d57600080fd5b506103b860048036038101906103b39190612a8f565b611f95565b6040516103cb9796959493929190612cd1565b60405180910390f35b3480156103e057600080fd5b506103fb60048036038101906103f69190612a8f565b612044565b6040516104089190612a74565b60405180910390f35b34801561041d57600080fd5b5061043860048036038101906104339190612d40565b612089565b005b34801561044657600080fd5b5061044f6125ef565b60405161045c9190612a74565b60405180910390f35b34801561047157600080fd5b5061048c60048036038101906104879190612a8f565b6125f5565b005b6104966126bf565b600034116104d9576040517f08c379a00000000000000000000000000000000000000000000000000000000081526004016104d090612e6c565b60405180910390fd5b60006009826040516104eb9190612f06565b9081526020016040518091039020541161053a576040517f08c379a000000000000000000000000000000000000000000000000000000000815260040161053190612f69565b60405180910390fd5b60098160405161054a9190612f06565b908152602001604051809103902054341461059a576040517f08c379a000000000000000000000000000000000000000000000000000000000815260040161059190612fd5565b60405180910390fd5b600073ffffffffffffffffffffffffffffffffffffffff168573ffffffffffffffffffffffffffffffffffffffff16141561060a576040517f08c379a000000000000000000000000000000000000000000000000000000000815260040161060190613041565b60405180910390fd5b600660009054906101000a900473ffffffffffffffffffffffffffffffffffffffff1673ffffffffffffffffffffffffffffffffffffffff16636a627842866040518263ffffffff1660e01b81526004016106659190613061565b600060405180830381600087803b15801561067f57600080fd5b505af1158015610693573d6000803e3d6000fd5b50505050600660009054906101000a900473ffffffffffffffffffffffffffffffffffffffff1673ffffffffffffffffffffffffffffffffffffffff166323b872dd3330866040518463ffffffff1660e01b81526004016106f69392919061307c565b600060405180830381600087803b15801561071057600080fd5b505af1158015610724573d6000803e3d6000fd5b505050506004600081548092919061073b906130e2565b91905055506040518060c0016040528060045481526020018373ffffffffffffffffffffffffffffffffffffffff1681526020018481526020018581526020013373ffffffffffffffffffffffffffffffffffffffff168152602001600015158152506007600060045481526020019081526020016000206000820151816000015560208201518160010160006101000a81548173ffffffffffffffffffffffffffffffffffffffff021916908373ffffffffffffffffffffffffffffffffffffffff160217905550604082015181600201556060820151816003015560808201518160040160006101000a81548173ffffffffffffffffffffffffffffffffffffffff021916908373ffffffffffffffffffffffffffffffffffffffff16021790555060a08201518160040160146101000a81548160ff0219169083151502179055509050503373ffffffffffffffffffffffffffffffffffffffff168273ffffffffffffffffffffffffffffffffffffffff167f8e2aa5a71c1bfbb6174cd8eb44ba4640d58d09aab75b7099dab4f31da3f05b4c600454868860006040516108e8949392919061312b565b60405180910390a36108f861270f565b5050505050565b600061090a82612044565b905060006007600084815260200190815260200160002090506000816003015490508234101561096f576040517f08c379a0000000000000000000000000000000000000000000000000000000008152600401610966906131bc565b60405180910390fd5b8034146109b1576040517f08c379a00000000000000000000000000000000000000000000000000000000081526004016109a89061324e565b60405180910390fd5b8160040160009054906101000a900473ffffffffffffffffffffffffffffffffffffffff1673ffffffffffffffffffffffffffffffffffffffff166108fc829081150290604051600060405180830381858888f19350505050158015610a1b573d6000803e3d6000fd5b50600660009054906101000a900473ffffffffffffffffffffffffffffffffffffffff1673ffffffffffffffffffffffffffffffffffffffff166323b872dd8360040160009054906101000a900473ffffffffffffffffffffffffffffffffffffffff1633876040518463ffffffff1660e01b8152600401610a9f9392919061328f565b600060405180830381600087803b158015610ab957600080fd5b505af1158015610acd573d6000803e3d6000fd5b505050506040518060e00160405280836000015481526020018673ffffffffffffffffffffffffffffffffffffffff168152602001858152602001836003015481526020018360040160009054906101000a900473ffffffffffffffffffffffffffffffffffffffff1673ffffffffffffffffffffffffffffffffffffffff1681526020013373ffffffffffffffffffffffffffffffffffffffff16815260200160011515815250600860008681526020019081526020016000206000820151816000015560208201518160010160006101000a81548173ffffffffffffffffffffffffffffffffffffffff021916908373ffffffffffffffffffffffffffffffffffffffff160217905550604082015181600201556060820151816003015560808201518160040160006101000a81548173ffffffffffffffffffffffffffffffffffffffff021916908373ffffffffffffffffffffffffffffffffffffffff16021790555060a08201518160050160006101000a81548173ffffffffffffffffffffffffffffffffffffffff021916908373ffffffffffffffffffffffffffffffffffffffff16021790555060c08201518160050160146101000a81548160ff0219169083151502179055509050503373ffffffffffffffffffffffffffffffffffffffff168260040160009054906101000a900473ffffffffffffffffffffffffffffffffffffffff1673ffffffffffffffffffffffffffffffffffffffff16857f27d543d0d890c56102762bb2c7aed8f2b2a84883a5c6a549c016e0bad5aae0ea600454898760030154604051610d2a939291906132c6565b60405180910390a4338260040160006101000a81548173ffffffffffffffffffffffffffffffffffffffff021916908373ffffffffffffffffffffffffffffffffffffffff16021790555060008260040160146101000a81548160ff0219169083151502179055505050505050565b6009818051602081018201805184825260208301602085012081835280955050505050506000915090505481565b60006007600083815260200190815260200160002090508060040160009054906101000a900473ffffffffffffffffffffffffffffffffffffffff1673ffffffffffffffffffffffffffffffffffffffff163373ffffffffffffffffffffffffffffffffffffffff1614610e70576040517f08c379a0000000000000000000000000000000000000000000000000000000008152600401610e679061336f565b60405180910390fd5b60018160040160146101000a81548160ff0219169083151502179055505050565b60008111610ed4576040517f08c379a0000000000000000000000000000000000000000000000000000000008152600401610ecb906133db565b60405180910390fd5b60006007600084815260200190815260200160002090508060040160009054906101000a900473ffffffffffffffffffffffffffffffffffffffff1673ffffffffffffffffffffffffffffffffffffffff163373ffffffffffffffffffffffffffffffffffffffff1614610f7d576040517f08c379a0000000000000000000000000000000000000000000000000000000008152600401610f749061336f565b60405180910390fd5b60018160040160146101000a81548160ff021916908315150217905550818160030181905550505050565b7f000000000000000000000000000000000000000000000000000000000000000073ffffffffffffffffffffffffffffffffffffffff163373ffffffffffffffffffffffffffffffffffffffff1614611036576040517f08c379a000000000000000000000000000000000000000000000000000000000815260040161102d9061346d565b60405180910390fd5b7f000000000000000000000000000000000000000000000000000000000000000073ffffffffffffffffffffffffffffffffffffffff166108fc479081150290604051600060405180830381858888f1935050505015801561109c573d6000803e3d6000fd5b50565b600081116110e2576040517f08c379a00000000000000000000000000000000000000000000000000000000081526004016110d9906134d9565b60405180910390fd5b6000600760008381526020019081526020016000209050600073ffffffffffffffffffffffffffffffffffffffff168160040160009054906101000a900473ffffffffffffffffffffffffffffffffffffffff1673ffffffffffffffffffffffffffffffffffffffff16141561118d576040517f08c379a000000000000000000000000000000000000000000000000000000000815260040161118490613545565b60405180910390fd5b600115158160040160149054906101000a900460ff161515146111e5576040517f08c379a00000000000000000000000000000000000000000000000000000000081526004016111dc906135b1565b60405180910390fd5b8060040160009054906101000a900473ffffffffffffffffffffffffffffffffffffffff1673ffffffffffffffffffffffffffffffffffffffff163373ffffffffffffffffffffffffffffffffffffffff1614611277576040517f08c379a000000000000000000000000000000000000000000000000000000000815260040161126e90613643565b60405180910390fd5b8060040160009054906101000a900473ffffffffffffffffffffffffffffffffffffffff1673ffffffffffffffffffffffffffffffffffffffff163373ffffffffffffffffffffffffffffffffffffffff1614611309576040517f08c379a000000000000000000000000000000000000000000000000000000000815260040161130090613643565b60405180910390fd5b60008160040160146101000a81548160ff0219169083151502179055505050565b7f000000000000000000000000000000000000000000000000000000000000000073ffffffffffffffffffffffffffffffffffffffff163373ffffffffffffffffffffffffffffffffffffffff16146113b8576040517f08c379a00000000000000000000000000000000000000000000000000000000081526004016113af9061346d565b60405180910390fd5b806009836040516113c99190612f06565b9081526020016040518091039020819055505050565b60045481565b6113ed6126bf565b60006113f883612044565b9050600060076000858152602001908152602001600020905060006008600086815260200190815260200160002090508160040160149054906101000a900460ff16611479576040517f08c379a0000000000000000000000000000000000000000000000000000000008152600401611470906136af565b60405180910390fd5b600084116114bc576040517f08c379a00000000000000000000000000000000000000000000000000000000081526004016114b39061371b565b60405180910390fd5b838311156114ff576040517f08c379a00000000000000000000000000000000000000000000000000000000081526004016114f6906137ad565b60405180910390fd5b82841015611542576040517f08c379a00000000000000000000000000000000000000000000000000000000081526004016115399061388b565b60405180910390fd5b6000826000015411801561156457508160040160149054906101000a900460ff165b6115a3576040517f08c379a000000000000000000000000000000000000000000000000000000000815260040161159a9061391d565b60405180910390fd5b8060050160149054906101000a900460ff16156115f5576040517f08c379a00000000000000000000000000000000000000000000000000000000081526004016115ec90613989565b60405180910390fd5b3373ffffffffffffffffffffffffffffffffffffffff168260040160009054906101000a900473ffffffffffffffffffffffffffffffffffffffff1673ffffffffffffffffffffffffffffffffffffffff161415611688576040517f08c379a000000000000000000000000000000000000000000000000000000000815260040161167f906139f5565b60405180910390fd5b6000600a60009054906101000a900473ffffffffffffffffffffffffffffffffffffffff1673ffffffffffffffffffffffffffffffffffffffff1663dd62ed3e33306040518363ffffffff1660e01b81526004016116e7929190613a15565b60206040518083038186803b1580156116ff57600080fd5b505afa158015611713573d6000803e3d6000fd5b505050506040513d601f19601f820116820180604052508101906117379190613a53565b90508481101561177c576040517f08c379a000000000000000000000000000000000000000000000000000000000815260040161177390613acc565b60405180910390fd5b600a60009054906101000a900473ffffffffffffffffffffffffffffffffffffffff1673ffffffffffffffffffffffffffffffffffffffff166323b872dd338560040160009054906101000a900473ffffffffffffffffffffffffffffffffffffffff16886040518463ffffffff1660e01b81526004016117ff93929190613aec565b602060405180830381600087803b15801561181957600080fd5b505af115801561182d573d6000803e3d6000fd5b505050506040513d601f19601f820116820180604052508101906118519190613b4f565b50600084866118609190613b7c565b9050600a60009054906101000a900473ffffffffffffffffffffffffffffffffffffffff1673ffffffffffffffffffffffffffffffffffffffff166323b872dd337f0000000000000000000000000000000000000000000000000000000000000000846040518463ffffffff1660e01b81526004016118e193929190613aec565b602060405180830381600087803b1580156118fb57600080fd5b505af115801561190f573d6000803e3d6000fd5b505050506040513d601f19601f820116820180604052508101906119339190613b4f565b508360010160009054906101000a900473ffffffffffffffffffffffffffffffffffffffff1673ffffffffffffffffffffffffffffffffffffffff166323b872dd303387600201546040518463ffffffff1660e01b81526004016119999392919061307c565b600060405180830381600087803b1580156119b357600080fd5b505af11580156119c7573d6000803e3d6000fd5b50505050600560008154809291906119de906130e2565b91905055506040518060e00160405280856000015481526020018973ffffffffffffffffffffffffffffffffffffffff168152602001888152602001856003015481526020018560040160009054906101000a900473ffffffffffffffffffffffffffffffffffffffff1673ffffffffffffffffffffffffffffffffffffffff1681526020013373ffffffffffffffffffffffffffffffffffffffff16815260200160011515815250600860008981526020019081526020016000206000820151816000015560208201518160010160006101000a81548173ffffffffffffffffffffffffffffffffffffffff021916908373ffffffffffffffffffffffffffffffffffffffff160217905550604082015181600201556060820151816003015560808201518160040160006101000a81548173ffffffffffffffffffffffffffffffffffffffff021916908373ffffffffffffffffffffffffffffffffffffffff16021790555060a08201518160050160006101000a81548173ffffffffffffffffffffffffffffffffffffffff021916908373ffffffffffffffffffffffffffffffffffffffff16021790555060c08201518160050160146101000a81548160ff0219169083151502179055509050503373ffffffffffffffffffffffffffffffffffffffff168460040160009054906101000a900473ffffffffffffffffffffffffffffffffffffffff1673ffffffffffffffffffffffffffffffffffffffff16887f27d543d0d890c56102762bb2c7aed8f2b2a84883a5c6a549c016e0bad5aae0ea87600001548c8960030154604051611c3e939291906132c6565b60405180910390a4338460040160006101000a81548173ffffffffffffffffffffffffffffffffffffffff021916908373ffffffffffffffffffffffffffffffffffffffff16021790555060008460040160146101000a81548160ff0219169083151502179055505050505050611cb361270f565b505050565b60035481565b7f000000000000000000000000000000000000000000000000000000000000000081565b7f000000000000000000000000000000000000000000000000000000000000000073ffffffffffffffffffffffffffffffffffffffff163373ffffffffffffffffffffffffffffffffffffffff1614611d70576040517f08c379a0000000000000000000000000000000000000000000000000000000008152600401611d679061346d565b60405180910390fd5b6000811015611db4576040517f08c379a0000000000000000000000000000000000000000000000000000000008152600401611dab90613c22565b60405180910390fd5b806003819055507f97e97c577f03bda90e2c9739011ec065ed5fbfb36ae217d20bb0d9be95e160cd81604051611dea9190612a74565b60405180910390a150565b60076020528060005260406000206000915090508060000154908060010160009054906101000a900473ffffffffffffffffffffffffffffffffffffffff16908060020154908060030154908060040160009054906101000a900473ffffffffffffffffffffffffffffffffffffffff16908060040160149054906101000a900460ff16905086565b60008111611ec1576040517f08c379a0000000000000000000000000000000000000000000000000000000008152600401611eb8906133db565b60405180910390fd5b60006007600084815260200190815260200160002090508060040160009054906101000a900473ffffffffffffffffffffffffffffffffffffffff1673ffffffffffffffffffffffffffffffffffffffff163373ffffffffffffffffffffffffffffffffffffffff1614611f6a576040517f08c379a0000000000000000000000000000000000000000000000000000000008152600401611f619061336f565b60405180910390fd5b60018160040160146101000a81548160ff021916908315150217905550818160030181905550505050565b60086020528060005260406000206000915090508060000154908060010160009054906101000a900473ffffffffffffffffffffffffffffffffffffffff16908060020154908060030154908060040160009054906101000a900473ffffffffffffffffffffffffffffffffffffffff16908060050160009054906101000a900473ffffffffffffffffffffffffffffffffffffffff16908060050160149054906101000a900460ff16905087565b6000606460035460646120579190613c42565b60076000858152602001908152602001600020600301546120789190613c98565b6120829190613d21565b9050919050565b6120916126bf565b60006009826040516120a39190612f06565b908152602001604051809103902054116120f2576040517f08c379a00000000000000000000000000000000000000000000000000000000081526004016120e990612f69565b60405180910390fd5b6009816040516121029190612f06565b9081526020016040518091039020548414612152576040517f08c379a000000000000000000000000000000000000000000000000000000000815260040161214990612fd5565b60405180910390fd5b6000600a60009054906101000a900473ffffffffffffffffffffffffffffffffffffffff1673ffffffffffffffffffffffffffffffffffffffff1663dd62ed3e33306040518363ffffffff1660e01b81526004016121b1929190613a15565b60206040518083038186803b1580156121c957600080fd5b505afa1580156121dd573d6000803e3d6000fd5b505050506040513d601f19601f820116820180604052508101906122019190613a53565b905084811015612246576040517f08c379a000000000000000000000000000000000000000000000000000000000815260040161223d90613acc565b60405180910390fd5b600a60009054906101000a900473ffffffffffffffffffffffffffffffffffffffff1673ffffffffffffffffffffffffffffffffffffffff166323b872dd3330886040518463ffffffff1660e01b81526004016122a59392919061307c565b602060405180830381600087803b1580156122bf57600080fd5b505af11580156122d3573d6000803e3d6000fd5b505050506040513d601f19601f820116820180604052508101906122f79190613b4f565b50600660009054906101000a900473ffffffffffffffffffffffffffffffffffffffff1673ffffffffffffffffffffffffffffffffffffffff16636a627842886040518263ffffffff1660e01b81526004016123539190613061565b600060405180830381600087803b15801561236d57600080fd5b505af1158015612381573d6000803e3d6000fd5b50505050600660009054906101000a900473ffffffffffffffffffffffffffffffffffffffff1673ffffffffffffffffffffffffffffffffffffffff166323b872dd3330896040518463ffffffff1660e01b81526004016123e49392919061307c565b600060405180830381600087803b1580156123fe57600080fd5b505af1158015612412573d6000803e3d6000fd5b5050505060046000815480929190612429906130e2565b91905055506040518060c0016040528060045481526020018473ffffffffffffffffffffffffffffffffffffffff1681526020018781526020018581526020013373ffffffffffffffffffffffffffffffffffffffff168152602001600015158152506007600060045481526020019081526020016000206000820151816000015560208201518160010160006101000a81548173ffffffffffffffffffffffffffffffffffffffff021916908373ffffffffffffffffffffffffffffffffffffffff160217905550604082015181600201556060820151816003015560808201518160040160006101000a81548173ffffffffffffffffffffffffffffffffffffffff021916908373ffffffffffffffffffffffffffffffffffffffff16021790555060a08201518160040160146101000a81548160ff0219169083151502179055509050503373ffffffffffffffffffffffffffffffffffffffff168373ffffffffffffffffffffffffffffffffffffffff167f8e2aa5a71c1bfbb6174cd8eb44ba4640d58d09aab75b7099dab4f31da3f05b4c600454898860006040516125d6949392919061312b565b60405180910390a3506125e761270f565b505050505050565b60055481565b60006007600083815260200190815260200160002090508060040160009054906101000a900473ffffffffffffffffffffffffffffffffffffffff1673ffffffffffffffffffffffffffffffffffffffff163373ffffffffffffffffffffffffffffffffffffffff161461269e576040517f08c379a00000000000000000000000000000000000000000000000000000000081526004016126959061336f565b60405180910390fd5b60018160040160146101000a81548160ff0219169083151502179055505050565b60026000541415612705576040517f08c379a00000000000000000000000000000000000000000000000000000000081526004016126fc90613d9e565b60405180910390fd5b6002600081905550565b6001600081905550565b6000604051905090565b600080fd5b600080fd5b600073ffffffffffffffffffffffffffffffffffffffff82169050919050565b60006127588261272d565b9050919050565b6127688161274d565b811461277357600080fd5b50565b6000813590506127858161275f565b92915050565b6000819050919050565b61279e8161278b565b81146127a957600080fd5b50565b6000813590506127bb81612795565b92915050565b60006127cc8261274d565b9050919050565b6127dc816127c1565b81146127e757600080fd5b50565b6000813590506127f9816127d3565b92915050565b600080fd5b600080fd5b6000601f19601f8301169050919050565b7f4e487b7100000000000000000000000000000000000000000000000000000000600052604160045260246000fd5b61285282612809565b810181811067ffffffffffffffff821117156128715761287061281a565b5b80604052505050565b6000612884612719565b90506128908282612849565b919050565b600067ffffffffffffffff8211156128b0576128af61281a565b5b6128b982612809565b9050602081019050919050565b82818337600083830152505050565b60006128e86128e384612895565b61287a565b90508281526020810184848401111561290457612903612804565b5b61290f8482856128c6565b509392505050565b600082601f83011261292c5761292b6127ff565b5b813561293c8482602086016128d5565b91505092915050565b600080600080600060a0868803121561296157612960612723565b5b600061296f88828901612776565b9550506020612980888289016127ac565b9450506040612991888289016127ac565b93505060606129a2888289016127ea565b925050608086013567ffffffffffffffff8111156129c3576129c2612728565b5b6129cf88828901612917565b9150509295509295909350565b600080604083850312156129f3576129f2612723565b5b6000612a01858286016127ea565b9250506020612a12858286016127ac565b9150509250929050565b600060208284031215612a3257612a31612723565b5b600082013567ffffffffffffffff811115612a5057612a4f612728565b5b612a5c84828501612917565b91505092915050565b612a6e8161278b565b82525050565b6000602082019050612a896000830184612a65565b92915050565b600060208284031215612aa557612aa4612723565b5b6000612ab3848285016127ac565b91505092915050565b60008060408385031215612ad357612ad2612723565b5b6000612ae1858286016127ac565b9250506020612af2858286016127ac565b9150509250929050565b60008060408385031215612b1357612b12612723565b5b600083013567ffffffffffffffff811115612b3157612b30612728565b5b612b3d85828601612917565b9250506020612b4e858286016127ac565b9150509250929050565b600080600060608486031215612b7157612b70612723565b5b6000612b7f868287016127ea565b9350506020612b90868287016127ac565b9250506040612ba1868287016127ac565b9150509250925092565b6000612bb68261272d565b9050919050565b612bc681612bab565b82525050565b6000602082019050612be16000830184612bbd565b92915050565b6000819050919050565b6000612c0c612c07612c028461272d565b612be7565b61272d565b9050919050565b6000612c1e82612bf1565b9050919050565b6000612c3082612c13565b9050919050565b612c4081612c25565b82525050565b60008115159050919050565b612c5b81612c46565b82525050565b600060c082019050612c766000830189612a65565b612c836020830188612c37565b612c906040830187612a65565b612c9d6060830186612a65565b612caa6080830185612bbd565b612cb760a0830184612c52565b979650505050505050565b612ccb8161274d565b82525050565b600060e082019050612ce6600083018a612a65565b612cf36020830189612c37565b612d006040830188612a65565b612d0d6060830187612a65565b612d1a6080830186612cc2565b612d2760a0830185612cc2565b612d3460c0830184612c52565b98975050505050505050565b60008060008060008060c08789031215612d5d57612d5c612723565b5b6000612d6b89828a01612776565b9650506020612d7c89828a016127ac565b9550506040612d8d89828a016127ac565b9450506060612d9e89828a016127ac565b9350506080612daf89828a016127ea565b92505060a087013567ffffffffffffffff811115612dd057612dcf612728565b5b612ddc89828a01612917565b9150509295509295509295565b600082825260208201905092915050565b7f45746865722076616c7565206d7573742062652067726561746572207468616e60008201527f2030000000000000000000000000000000000000000000000000000000000000602082015250565b6000612e56602283612de9565b9150612e6182612dfa565b604082019050919050565b60006020820190508181036000830152612e8581612e49565b9050919050565b600081519050919050565b600081905092915050565b60005b83811015612ec0578082015181840152602081019050612ea5565b83811115612ecf576000848401525b50505050565b6000612ee082612e8c565b612eea8185612e97565b9350612efa818560208601612ea2565b80840191505092915050565b6000612f128284612ed5565b915081905092915050565b7f496e76616c6964206d696e74696e672074797065000000000000000000000000600082015250565b6000612f53601483612de9565b9150612f5e82612f1d565b602082019050919050565b60006020820190508181036000830152612f8281612f46565b9050919050565b7f496e636f7272656374207061796d656e7420616d6f756e740000000000000000600082015250565b6000612fbf601883612de9565b9150612fca82612f89565b602082019050919050565b60006020820190508181036000830152612fee81612fb2565b9050919050565b7f496e76616c696420726563697069656e74206164647265737300000000000000600082015250565b600061302b601983612de9565b915061303682612ff5565b602082019050919050565b6000602082019050818103600083015261305a8161301e565b9050919050565b60006020820190506130766000830184612cc2565b92915050565b60006060820190506130916000830186612cc2565b61309e6020830185612cc2565b6130ab6040830184612a65565b949350505050565b7f4e487b7100000000000000000000000000000000000000000000000000000000600052601160045260246000fd5b60006130ed8261278b565b91507fffffffffffffffffffffffffffffffffffffffffffffffffffffffffffffffff8214156131205761311f6130b3565b5b600182019050919050565b60006080820190506131406000830187612a65565b61314d6020830186612a65565b61315a6040830185612a65565b6131676060830184612c52565b95945050505050565b7f53656e74204574686572206973206e6f7420656e6f7567680000000000000000600082015250565b60006131a6601883612de9565b91506131b182613170565b602082019050919050565b600060208201905081810360008301526131d581613199565b9050919050565b7f53656e742045746865722076616c756520646f6573206e6f74206d617463682060008201527f7072696365000000000000000000000000000000000000000000000000000000602082015250565b6000613238602583612de9565b9150613243826131dc565b604082019050919050565b600060208201905081810360008301526132678161322b565b9050919050565b600061327982612c13565b9050919050565b6132898161326e565b82525050565b60006060820190506132a46000830186613280565b6132b16020830185612cc2565b6132be6040830184612a65565b949350505050565b60006060820190506132db6000830186612a65565b6132e86020830185612c37565b6132f56040830184612a65565b949350505050565b7f4f6e6c7920746865206f776e65722063616e206c6973742074686520746f6b6560008201527f6e20666f722073616c6500000000000000000000000000000000000000000000602082015250565b6000613359602a83612de9565b9150613364826132fd565b604082019050919050565b600060208201905081810360008301526133888161334c565b9050919050565b7f5072696365206d7573742062652067726561746572207468616e203000000000600082015250565b60006133c5601c83612de9565b91506133d08261338f565b602082019050919050565b600060208201905081810360008301526133f4816133b8565b9050919050565b7f4f6e6c7920746865206f776e65722063616e2063616c6c20746869732066756e60008201527f6374696f6e2e0000000000000000000000000000000000000000000000000000602082015250565b6000613457602683612de9565b9150613462826133fb565b604082019050919050565b600060208201905081810360008301526134868161344a565b9050919050565b7f4974656d206e6f7420666f756e6420696e206c69737400000000000000000000600082015250565b60006134c3601683612de9565b91506134ce8261348d565b602082019050919050565b600060208201905081810360008301526134f2816134b6565b9050919050565b7f4974656d206e6f7420666f756e64000000000000000000000000000000000000600082015250565b600061352f600e83612de9565b915061353a826134f9565b602082019050919050565b6000602082019050818103600083015261355e81613522565b9050919050565b7f4974656d20697320616c726561647920756e6c69737465640000000000000000600082015250565b600061359b601883612de9565b91506135a682613565565b602082019050919050565b600060208201905081810360008301526135ca8161358e565b9050919050565b7f4f6e6c7920746865206f776e65722063616e20756e6c6973742074686520746f60008201527f6b656e2066726f6d2073616c6500000000000000000000000000000000000000602082015250565b600061362d602d83612de9565b9150613638826135d1565b604082019050919050565b6000602082019050818103600083015261365c81613620565b9050919050565b7f4974656d206973206e6f74206c697374656420666f722073616c650000000000600082015250565b6000613699601b83612de9565b91506136a482613663565b602082019050919050565b600060208201905081810360008301526136c88161368c565b9050919050565b7f59544b2076616c7565206d7573742062652067726561746572207468616e2030600082015250565b6000613705602083612de9565b9150613710826136cf565b602082019050919050565b60006020820190508181036000830152613734816136f8565b9050919050565b7f59544b2076616c7565206d7573742062652067726561746572207468616e206f60008201527f7220657175616c7320746f20616d6f756e742070617373656420696e00000000602082015250565b6000613797603c83612de9565b91506137a28261373b565b604082019050919050565b600060208201905081810360008301526137c68161378a565b9050919050565b7f5468652070726f76696465642059544b20616d6f756e74206973206e6f74206560008201527f6e6f75676820746f20636f76657220746865206974656d20707269636520616e60208201527f64206d61726b6574706c616365206665652e20506c656173652070726f76696460408201527f652074686520726571756972656420616d6f756e740000000000000000000000606082015250565b6000613875607583612de9565b9150613880826137cd565b608082019050919050565b600060208201905081810360008301526138a481613868565b9050919050565b7f4974656d20646f65736e2774206578697374206f72206e6f74206c697374656460008201527f20666f722073616c650000000000000000000000000000000000000000000000602082015250565b6000613907602983612de9565b9150613912826138ab565b604082019050919050565b60006020820190508181036000830152613936816138fa565b9050919050565b7f4974656d20736f6c6420616c7265616479000000000000000000000000000000600082015250565b6000613973601183612de9565b915061397e8261393d565b602082019050919050565b600060208201905081810360008301526139a281613966565b9050919050565b7f43616e6e6f742062757920796f7572206f776e206974656d0000000000000000600082015250565b60006139df601883612de9565b91506139ea826139a9565b602082019050919050565b60006020820190508181036000830152613a0e816139d2565b9050919050565b6000604082019050613a2a6000830185612cc2565b613a376020830184612cc2565b9392505050565b600081519050613a4d81612795565b92915050565b600060208284031215613a6957613a68612723565b5b6000613a7784828501613a3e565b91505092915050565b7f496e73756666696369656e7420746f6b656e20616c6c6f77616e636500000000600082015250565b6000613ab6601c83612de9565b9150613ac182613a80565b602082019050919050565b60006020820190508181036000830152613ae581613aa9565b9050919050565b6000606082019050613b016000830186612cc2565b613b0e6020830185613280565b613b1b6040830184612a65565b949350505050565b613b2c81612c46565b8114613b3757600080fd5b50565b600081519050613b4981613b23565b92915050565b600060208284031215613b6557613b64612723565b5b6000613b7384828501613b3a565b91505092915050565b6000613b878261278b565b9150613b928361278b565b925082821015613ba557613ba46130b3565b5b828203905092915050565b7f4665652070657263656e746167652063616e6e6f74206265206e65676174697660008201527f65206f7220300000000000000000000000000000000000000000000000000000602082015250565b6000613c0c602683612de9565b9150613c1782613bb0565b604082019050919050565b60006020820190508181036000830152613c3b81613bff565b9050919050565b6000613c4d8261278b565b9150613c588361278b565b9250827fffffffffffffffffffffffffffffffffffffffffffffffffffffffffffffffff03821115613c8d57613c8c6130b3565b5b828201905092915050565b6000613ca38261278b565b9150613cae8361278b565b9250817fffffffffffffffffffffffffffffffffffffffffffffffffffffffffffffffff0483118215151615613ce757613ce66130b3565b5b828202905092915050565b7f4e487b7100000000000000000000000000000000000000000000000000000000600052601260045260246000fd5b6000613d2c8261278b565b9150613d378361278b565b925082613d4757613d46613cf2565b5b828204905092915050565b7f5265656e7472616e637947756172643a207265656e7472616e742063616c6c00600082015250565b6000613d88601f83612de9565b9150613d9382613d52565b602082019050919050565b60006020820190508181036000830152613db781613d7b565b905091905056fea2646970667358221220044b32848941da3aef626ee069931248b65544cff66d9fbb25f38e426b0200bc64736f6c63430008090033",
  "linkReferences": {},
  "deployedLinkReferences": {}
}