{
  "_format": "hh-sol-artifact-1",
  "contractName": "YtkNft",
  "sourceName": "contracts/YTKNFT.sol",
  "abi": [
    {
      "inputs": [
        {
          "internalType": "string",
          "name": "name_",
          "type": "string"
        },
        {
          "internalType": "string",
          "name": "symbol_",
          "type": "string"
        },
        {
          "internalType": "address",
          "name": "_customTokenAddress",
          "type": "address"
        }
      ],
      "stateMutability": "nonpayable",
      "type": "constructor"
    },
    {
      "anonymous": false,
      "inputs": [
        {
          "indexed": true,
          "internalType": "address",
          "name": "owner",
          "type": "address"
        },
        {
          "indexed": true,
          "internalType": "address",
          "name": "approved",
          "type": "address"
        },
        {
          "indexed": true,
          "internalType": "uint256",
          "name": "tokenId",
          "type": "uint256"
        }
      ],
      "name": "Approval",
      "type": "event"
    },
    {
      "anonymous": false,
      "inputs": [
        {
          "indexed": true,
          "internalType": "address",
          "name": "owner",
          "type": "address"
        },
        {
          "indexed": true,
          "internalType": "address",
          "name": "operator",
          "type": "address"
        },
        {
          "indexed": false,
          "internalType": "bool",
          "name": "approved",
          "type": "bool"
        }
      ],
      "name": "ApprovalForAll",
      "type": "event"
    },
    {
      "anonymous": false,
      "inputs": [
        {
          "indexed": true,
          "internalType": "address",
          "name": "previousOwner",
          "type": "address"
        },
        {
          "indexed": true,
          "internalType": "address",
          "name": "newOwner",
          "type": "address"
        }
      ],
      "name": "OwnershipTransferred",
      "type": "event"
    },
    {
      "anonymous": false,
      "inputs": [
        {
          "indexed": true,
          "internalType": "address",
          "name": "from",
          "type": "address"
        },
        {
          "indexed": true,
          "internalType": "address",
          "name": "to",
          "type": "address"
        },
        {
          "indexed": true,
          "internalType": "uint256",
          "name": "tokenId",
          "type": "uint256"
        }
      ],
      "name": "Transfer",
      "type": "event"
    },
    {
      "inputs": [
        {
          "internalType": "address",
          "name": "to",
          "type": "address"
        },
        {
          "internalType": "uint256",
          "name": "tokenId",
          "type": "uint256"
        }
      ],
      "name": "approve",
      "outputs": [],
      "stateMutability": "nonpayable",
      "type": "function"
    },
    {
      "inputs": [
        {
          "internalType": "address",
          "name": "owner",
          "type": "address"
        }
      ],
      "name": "balanceOf",
      "outputs": [
        {
          "internalType": "uint256",
          "name": "",
          "type": "uint256"
        }
      ],
      "stateMutability": "view",
      "type": "function"
    },
    {
      "inputs": [],
      "name": "customTokenAddress",
      "outputs": [
        {
          "internalType": "address",
          "name": "",
          "type": "address"
        }
      ],
      "stateMutability": "view",
      "type": "function"
    },
    {
      "inputs": [],
      "name": "customTokenAddressValue",
      "outputs": [
        {
          "internalType": "address",
          "name": "",
          "type": "address"
        }
      ],
      "stateMutability": "view",
      "type": "function"
    },
    {
      "inputs": [
        {
          "internalType": "uint256",
          "name": "tokenId",
          "type": "uint256"
        }
      ],
      "name": "getApproved",
      "outputs": [
        {
          "internalType": "address",
          "name": "",
          "type": "address"
        }
      ],
      "stateMutability": "view",
      "type": "function"
    },
    {
      "inputs": [
        {
          "internalType": "address",
          "name": "owner",
          "type": "address"
        },
        {
          "internalType": "address",
          "name": "operator",
          "type": "address"
        }
      ],
      "name": "isApprovedForAll",
      "outputs": [
        {
          "internalType": "bool",
          "name": "",
          "type": "bool"
        }
      ],
      "stateMutability": "view",
      "type": "function"
    },
    {
      "inputs": [
        {
          "internalType": "address",
          "name": "recipient",
          "type": "address"
        }
      ],
      "name": "mint",
      "outputs": [],
      "stateMutability": "nonpayable",
      "type": "function"
    },
    {
      "inputs": [],
      "name": "name",
      "outputs": [
        {
          "internalType": "string",
          "name": "",
          "type": "string"
        }
      ],
      "stateMutability": "view",
      "type": "function"
    },
    {
      "inputs": [],
      "name": "nextTokenId",
      "outputs": [
        {
          "internalType": "uint256",
          "name": "",
          "type": "uint256"
        }
      ],
      "stateMutability": "view",
      "type": "function"
    },
    {
      "inputs": [],
      "name": "owner",
      "outputs": [
        {
          "internalType": "address",
          "name": "",
          "type": "address"
        }
      ],
      "stateMutability": "view",
      "type": "function"
    },
    {
      "inputs": [
        {
          "internalType": "uint256",
          "name": "tokenId",
          "type": "uint256"
        }
      ],
      "name": "ownerOf",
      "outputs": [
        {
          "internalType": "address",
          "name": "",
          "type": "address"
        }
      ],
      "stateMutability": "view",
      "type": "function"
    },
    {
      "inputs": [],
      "name": "renounceOwnership",
      "outputs": [],
      "stateMutability": "nonpayable",
      "type": "function"
    },
    {
      "inputs": [
        {
          "internalType": "address",
          "name": "from",
          "type": "address"
        },
        {
          "internalType": "address",
          "name": "to",
          "type": "address"
        },
        {
          "internalType": "uint256",
          "name": "tokenId",
          "type": "uint256"
        }
      ],
      "name": "safeTransferFrom",
      "outputs": [],
      "stateMutability": "nonpayable",
      "type": "function"
    },
    {
      "inputs": [
        {
          "internalType": "address",
          "name": "from",
          "type": "address"
        },
        {
          "internalType": "address",
          "name": "to",
          "type": "address"
        },
        {
          "internalType": "uint256",
          "name": "tokenId",
          "type": "uint256"
        },
        {
          "internalType": "bytes",
          "name": "data",
          "type": "bytes"
        }
      ],
      "name": "safeTransferFrom",
      "outputs": [],
      "stateMutability": "nonpayable",
      "type": "function"
    },
    {
      "inputs": [
        {
          "internalType": "address",
          "name": "operator",
          "type": "address"
        },
        {
          "internalType": "bool",
          "name": "approved",
          "type": "bool"
        }
      ],
      "name": "setApprovalForAll",
      "outputs": [],
      "stateMutability": "nonpayable",
      "type": "function"
    },
    {
      "inputs": [
        {
          "internalType": "bytes4",
          "name": "interfaceId",
          "type": "bytes4"
        }
      ],
      "name": "supportsInterface",
      "outputs": [
        {
          "internalType": "bool",
          "name": "",
          "type": "bool"
        }
      ],
      "stateMutability": "view",
      "type": "function"
    },
    {
      "inputs": [],
      "name": "symbol",
      "outputs": [
        {
          "internalType": "string",
          "name": "",
          "type": "string"
        }
      ],
      "stateMutability": "view",
      "type": "function"
    },
    {
      "inputs": [
        {
          "internalType": "uint256",
          "name": "tokenId",
          "type": "uint256"
        }
      ],
      "name": "tokenURI",
      "outputs": [
        {
          "internalType": "string",
          "name": "",
          "type": "string"
        }
      ],
      "stateMutability": "view",
      "type": "function"
    },
    {
      "inputs": [
        {
          "internalType": "address",
          "name": "from",
          "type": "address"
        },
        {
          "internalType": "address",
          "name": "to",
          "type": "address"
        },
        {
          "internalType": "uint256",
          "name": "tokenId",
          "type": "uint256"
        }
      ],
      "name": "transferFrom",
      "outputs": [],
      "stateMutability": "nonpayable",
      "type": "function"
    },
    {
      "inputs": [
        {
          "internalType": "address",
          "name": "newOwner",
          "type": "address"
        }
      ],
      "name": "transferOwnership",
      "outputs": [],
      "stateMutability": "nonpayable",
      "type": "function"
    }
  ],
  "bytecode": "0x60806040523480156200001157600080fd5b50604051620030e8380380620030e883398181016040528101906200003791906200045f565b8282816000908051906020019062000051929190620001ad565b5080600190805190602001906200006a929190620001ad565b5050506200008d62000081620000df60201b60201c565b620000e760201b60201c565b600160078190555080600860006101000a81548173ffffffffffffffffffffffffffffffffffffffff021916908373ffffffffffffffffffffffffffffffffffffffff1602179055505050506200055e565b600033905090565b6000600660009054906101000a900473ffffffffffffffffffffffffffffffffffffffff16905081600660006101000a81548173ffffffffffffffffffffffffffffffffffffffff021916908373ffffffffffffffffffffffffffffffffffffffff1602179055508173ffffffffffffffffffffffffffffffffffffffff168173ffffffffffffffffffffffffffffffffffffffff167f8be0079c531659141344cd1fd0a4f28419497f9722a3daafe3b4186f6b6457e060405160405180910390a35050565b828054620001bb9062000528565b90600052602060002090601f016020900481019282620001df57600085556200022b565b82601f10620001fa57805160ff19168380011785556200022b565b828001600101855582156200022b579182015b828111156200022a5782518255916020019190600101906200020d565b5b5090506200023a91906200023e565b5090565b5b80821115620002595760008160009055506001016200023f565b5090565b6000604051905090565b600080fd5b600080fd5b600080fd5b600080fd5b6000601f19601f8301169050919050565b7f4e487b7100000000000000000000000000000000000000000000000000000000600052604160045260246000fd5b620002c6826200027b565b810181811067ffffffffffffffff82111715620002e857620002e76200028c565b5b80604052505050565b6000620002fd6200025d565b90506200030b8282620002bb565b919050565b600067ffffffffffffffff8211156200032e576200032d6200028c565b5b62000339826200027b565b9050602081019050919050565b60005b838110156200036657808201518184015260208101905062000349565b8381111562000376576000848401525b50505050565b6000620003936200038d8462000310565b620002f1565b905082815260208101848484011115620003b257620003b162000276565b5b620003bf84828562000346565b509392505050565b600082601f830112620003df57620003de62000271565b5b8151620003f18482602086016200037c565b91505092915050565b600073ffffffffffffffffffffffffffffffffffffffff82169050919050565b60006200042782620003fa565b9050919050565b62000439816200041a565b81146200044557600080fd5b50565b60008151905062000459816200042e565b92915050565b6000806000606084860312156200047b576200047a62000267565b5b600084015167ffffffffffffffff8111156200049c576200049b6200026c565b5b620004aa86828701620003c7565b935050602084015167ffffffffffffffff811115620004ce57620004cd6200026c565b5b620004dc86828701620003c7565b9250506040620004ef8682870162000448565b9150509250925092565b7f4e487b7100000000000000000000000000000000000000000000000000000000600052602260045260246000fd5b600060028204905060018216806200054157607f821691505b60208210811415620005585762000557620004f9565b5b50919050565b612b7a806200056e6000396000f3fe608060405234801561001057600080fd5b506004361061012c5760003560e01c806375794a3c116100ad578063b88d4fde11610071578063b88d4fde1461031d578063c87b56dd14610339578063e985e9c514610369578063f2fde38b14610399578063f9233135146103b55761012c565b806375794a3c146102895780638da5cb5b146102a757806395d89b41146102c5578063a22cb465146102e3578063b5863e1c146102ff5761012c565b806342842e0e116100f457806342842e0e146101e75780636352211e146102035780636a6278421461023357806370a082311461024f578063715018a61461027f5761012c565b806301ffc9a71461013157806306fdde0314610161578063081812fc1461017f578063095ea7b3146101af57806323b872dd146101cb575b600080fd5b61014b60048036038101906101469190611c6c565b6103d3565b6040516101589190611cb4565b60405180910390f35b6101696104b5565b6040516101769190611d68565b60405180910390f35b61019960048036038101906101949190611dc0565b610547565b6040516101a69190611e2e565b60405180910390f35b6101c960048036038101906101c49190611e75565b61058d565b005b6101e560048036038101906101e09190611eb5565b6106a5565b005b61020160048036038101906101fc9190611eb5565b610705565b005b61021d60048036038101906102189190611dc0565b610725565b60405161022a9190611e2e565b60405180910390f35b61024d60048036038101906102489190611f08565b6107ac565b005b61026960048036038101906102649190611f08565b6107db565b6040516102769190611f44565b60405180910390f35b610287610893565b005b6102916108a7565b60405161029e9190611f44565b60405180910390f35b6102af6108ad565b6040516102bc9190611e2e565b60405180910390f35b6102cd6108d7565b6040516102da9190611d68565b60405180910390f35b6102fd60048036038101906102f89190611f8b565b610969565b005b61030761097f565b6040516103149190611e2e565b60405180910390f35b61033760048036038101906103329190612100565b6109a5565b005b610353600480360381019061034e9190611dc0565b610a07565b6040516103609190611d68565b60405180910390f35b610383600480360381019061037e9190612183565b610a6f565b6040516103909190611cb4565b60405180910390f35b6103b360048036038101906103ae9190611f08565b610b03565b005b6103bd610b87565b6040516103ca9190611e2e565b60405180910390f35b60007f80ac58cd000000000000000000000000000000000000000000000000000000007bffffffffffffffffffffffffffffffffffffffffffffffffffffffff1916827bffffffffffffffffffffffffffffffffffffffffffffffffffffffff1916148061049e57507f5b5e139f000000000000000000000000000000000000000000000000000000007bffffffffffffffffffffffffffffffffffffffffffffffffffffffff1916827bffffffffffffffffffffffffffffffffffffffffffffffffffffffff1916145b806104ae57506104ad82610bb1565b5b9050919050565b6060600080546104c4906121f2565b80601f01602080910402602001604051908101604052809291908181526020018280546104f0906121f2565b801561053d5780601f106105125761010080835404028352916020019161053d565b820191906000526020600020905b81548152906001019060200180831161052057829003601f168201915b5050505050905090565b600061055282610c1b565b6004600083815260200190815260200160002060009054906101000a900473ffffffffffffffffffffffffffffffffffffffff169050919050565b600061059882610725565b90508073ffffffffffffffffffffffffffffffffffffffff168373ffffffffffffffffffffffffffffffffffffffff161415610609576040517f08c379a000000000000000000000000000000000000000000000000000000000815260040161060090612296565b60405180910390fd5b8073ffffffffffffffffffffffffffffffffffffffff16610628610c66565b73ffffffffffffffffffffffffffffffffffffffff161480610657575061065681610651610c66565b610a6f565b5b610696576040517f08c379a000000000000000000000000000000000000000000000000000000000815260040161068d90612328565b60405180910390fd5b6106a08383610c6e565b505050565b6106b66106b0610c66565b82610d27565b6106f5576040517f08c379a00000000000000000000000000000000000000000000000000000000081526004016106ec906123ba565b60405180910390fd5b610700838383610dbc565b505050565b610720838383604051806020016040528060008152506109a5565b505050565b600080610731836110b6565b9050600073ffffffffffffffffffffffffffffffffffffffff168173ffffffffffffffffffffffffffffffffffffffff1614156107a3576040517f08c379a000000000000000000000000000000000000000000000000000000000815260040161079a90612426565b60405180910390fd5b80915050919050565b6107b46110f3565b6107c081600754611171565b600760008154809291906107d390612475565b919050555050565b60008073ffffffffffffffffffffffffffffffffffffffff168273ffffffffffffffffffffffffffffffffffffffff16141561084c576040517f08c379a000000000000000000000000000000000000000000000000000000000815260040161084390612530565b60405180910390fd5b600360008373ffffffffffffffffffffffffffffffffffffffff1673ffffffffffffffffffffffffffffffffffffffff168152602001908152602001600020549050919050565b61089b6110f3565b6108a5600061118f565b565b60075481565b6000600660009054906101000a900473ffffffffffffffffffffffffffffffffffffffff16905090565b6060600180546108e6906121f2565b80601f0160208091040260200160405190810160405280929190818152602001828054610912906121f2565b801561095f5780601f106109345761010080835404028352916020019161095f565b820191906000526020600020905b81548152906001019060200180831161094257829003601f168201915b5050505050905090565b61097b610974610c66565b8383611255565b5050565b600860009054906101000a900473ffffffffffffffffffffffffffffffffffffffff1681565b6109b66109b0610c66565b83610d27565b6109f5576040517f08c379a00000000000000000000000000000000000000000000000000000000081526004016109ec906123ba565b60405180910390fd5b610a01848484846113c2565b50505050565b6060610a1282610c1b565b6000610a1c61141e565b90506000815111610a3c5760405180602001604052806000815250610a67565b80610a4684611435565b604051602001610a5792919061258c565b6040516020818303038152906040525b915050919050565b6000600560008473ffffffffffffffffffffffffffffffffffffffff1673ffffffffffffffffffffffffffffffffffffffff16815260200190815260200160002060008373ffffffffffffffffffffffffffffffffffffffff1673ffffffffffffffffffffffffffffffffffffffff16815260200190815260200160002060009054906101000a900460ff16905092915050565b610b0b6110f3565b600073ffffffffffffffffffffffffffffffffffffffff168173ffffffffffffffffffffffffffffffffffffffff161415610b7b576040517f08c379a0000000000000000000000000000000000000000000000000000000008152600401610b7290612622565b60405180910390fd5b610b848161118f565b50565b6000600860009054906101000a900473ffffffffffffffffffffffffffffffffffffffff16905090565b60007f01ffc9a7000000000000000000000000000000000000000000000000000000007bffffffffffffffffffffffffffffffffffffffffffffffffffffffff1916827bffffffffffffffffffffffffffffffffffffffffffffffffffffffff1916149050919050565b610c248161150d565b610c63576040517f08c379a0000000000000000000000000000000000000000000000000000000008152600401610c5a90612426565b60405180910390fd5b50565b600033905090565b816004600083815260200190815260200160002060006101000a81548173ffffffffffffffffffffffffffffffffffffffff021916908373ffffffffffffffffffffffffffffffffffffffff160217905550808273ffffffffffffffffffffffffffffffffffffffff16610ce183610725565b73ffffffffffffffffffffffffffffffffffffffff167f8c5be1e5ebec7d5bd14f71427d1e84f3dd0314c0f7b2291e5b200ac8c7c3b92560405160405180910390a45050565b600080610d3383610725565b90508073ffffffffffffffffffffffffffffffffffffffff168473ffffffffffffffffffffffffffffffffffffffff161480610d755750610d748185610a6f565b5b80610db357508373ffffffffffffffffffffffffffffffffffffffff16610d9b84610547565b73ffffffffffffffffffffffffffffffffffffffff16145b91505092915050565b8273ffffffffffffffffffffffffffffffffffffffff16610ddc82610725565b73ffffffffffffffffffffffffffffffffffffffff1614610e32576040517f08c379a0000000000000000000000000000000000000000000000000000000008152600401610e29906126b4565b60405180910390fd5b600073ffffffffffffffffffffffffffffffffffffffff168273ffffffffffffffffffffffffffffffffffffffff161415610ea2576040517f08c379a0000000000000000000000000000000000000000000000000000000008152600401610e9990612746565b60405180910390fd5b610eaf838383600161154e565b8273ffffffffffffffffffffffffffffffffffffffff16610ecf82610725565b73ffffffffffffffffffffffffffffffffffffffff1614610f25576040517f08c379a0000000000000000000000000000000000000000000000000000000008152600401610f1c906126b4565b60405180910390fd5b6004600082815260200190815260200160002060006101000a81549073ffffffffffffffffffffffffffffffffffffffff02191690556001600360008573ffffffffffffffffffffffffffffffffffffffff1673ffffffffffffffffffffffffffffffffffffffff168152602001908152602001600020600082825403925050819055506001600360008473ffffffffffffffffffffffffffffffffffffffff1673ffffffffffffffffffffffffffffffffffffffff16815260200190815260200160002060008282540192505081905550816002600083815260200190815260200160002060006101000a81548173ffffffffffffffffffffffffffffffffffffffff021916908373ffffffffffffffffffffffffffffffffffffffff160217905550808273ffffffffffffffffffffffffffffffffffffffff168473ffffffffffffffffffffffffffffffffffffffff167fddf252ad1be2c89b69c2b068fc378daa952ba7f163c4a11628f55a4df523b3ef60405160405180910390a46110b18383836001611674565b505050565b60006002600083815260200190815260200160002060009054906101000a900473ffffffffffffffffffffffffffffffffffffffff169050919050565b6110fb610c66565b73ffffffffffffffffffffffffffffffffffffffff166111196108ad565b73ffffffffffffffffffffffffffffffffffffffff161461116f576040517f08c379a0000000000000000000000000000000000000000000000000000000008152600401611166906127b2565b60405180910390fd5b565b61118b82826040518060200160405280600081525061167a565b5050565b6000600660009054906101000a900473ffffffffffffffffffffffffffffffffffffffff16905081600660006101000a81548173ffffffffffffffffffffffffffffffffffffffff021916908373ffffffffffffffffffffffffffffffffffffffff1602179055508173ffffffffffffffffffffffffffffffffffffffff168173ffffffffffffffffffffffffffffffffffffffff167f8be0079c531659141344cd1fd0a4f28419497f9722a3daafe3b4186f6b6457e060405160405180910390a35050565b8173ffffffffffffffffffffffffffffffffffffffff168373ffffffffffffffffffffffffffffffffffffffff1614156112c4576040517f08c379a00000000000000000000000000000000000000000000000000000000081526004016112bb9061281e565b60405180910390fd5b80600560008573ffffffffffffffffffffffffffffffffffffffff1673ffffffffffffffffffffffffffffffffffffffff16815260200190815260200160002060008473ffffffffffffffffffffffffffffffffffffffff1673ffffffffffffffffffffffffffffffffffffffff16815260200190815260200160002060006101000a81548160ff0219169083151502179055508173ffffffffffffffffffffffffffffffffffffffff168373ffffffffffffffffffffffffffffffffffffffff167f17307eab39ab6107e8899845ad3d59bd9653f200f220920489ca2b5937696c31836040516113b59190611cb4565b60405180910390a3505050565b6113cd848484610dbc565b6113d9848484846116d5565b611418576040517f08c379a000000000000000000000000000000000000000000000000000000000815260040161140f906128b0565b60405180910390fd5b50505050565b606060405180602001604052806000815250905090565b6060600060016114448461186c565b01905060008167ffffffffffffffff81111561146357611462611fd5565b5b6040519080825280601f01601f1916602001820160405280156114955781602001600182028036833780820191505090505b509050600082602001820190505b600115611502578080600190039150507f3031323334353637383961626364656600000000000000000000000000000000600a86061a8153600a85816114ec576114eb6128d0565b5b04945060008514156114fd57611502565b6114a3565b819350505050919050565b60008073ffffffffffffffffffffffffffffffffffffffff1661152f836110b6565b73ffffffffffffffffffffffffffffffffffffffff1614159050919050565b600181111561166e57600073ffffffffffffffffffffffffffffffffffffffff168473ffffffffffffffffffffffffffffffffffffffff16146115e25780600360008673ffffffffffffffffffffffffffffffffffffffff1673ffffffffffffffffffffffffffffffffffffffff16815260200190815260200160002060008282546115da91906128ff565b925050819055505b600073ffffffffffffffffffffffffffffffffffffffff168373ffffffffffffffffffffffffffffffffffffffff161461166d5780600360008573ffffffffffffffffffffffffffffffffffffffff1673ffffffffffffffffffffffffffffffffffffffff16815260200190815260200160002060008282546116659190612933565b925050819055505b5b50505050565b50505050565b61168483836119bf565b61169160008484846116d5565b6116d0576040517f08c379a00000000000000000000000000000000000000000000000000000000081526004016116c7906128b0565b60405180910390fd5b505050565b60006116f68473ffffffffffffffffffffffffffffffffffffffff16611bdd565b1561185f578373ffffffffffffffffffffffffffffffffffffffff1663150b7a0261171f610c66565b8786866040518563ffffffff1660e01b815260040161174194939291906129de565b602060405180830381600087803b15801561175b57600080fd5b505af192505050801561178c57506040513d601f19601f820116820180604052508101906117899190612a3f565b60015b61180f573d80600081146117bc576040519150601f19603f3d011682016040523d82523d6000602084013e6117c1565b606091505b50600081511415611807576040517f08c379a00000000000000000000000000000000000000000000000000000000081526004016117fe906128b0565b60405180910390fd5b805181602001fd5b63150b7a0260e01b7bffffffffffffffffffffffffffffffffffffffffffffffffffffffff1916817bffffffffffffffffffffffffffffffffffffffffffffffffffffffff191614915050611864565b600190505b949350505050565b600080600090507a184f03e93ff9f4daa797ed6e38ed64bf6a1f01000000000000000083106118ca577a184f03e93ff9f4daa797ed6e38ed64bf6a1f01000000000000000083816118c0576118bf6128d0565b5b0492506040810190505b6d04ee2d6d415b85acef81000000008310611907576d04ee2d6d415b85acef810000000083816118fd576118fc6128d0565b5b0492506020810190505b662386f26fc10000831061193657662386f26fc10000838161192c5761192b6128d0565b5b0492506010810190505b6305f5e100831061195f576305f5e1008381611955576119546128d0565b5b0492506008810190505b612710831061198457612710838161197a576119796128d0565b5b0492506004810190505b606483106119a7576064838161199d5761199c6128d0565b5b0492506002810190505b600a83106119b6576001810190505b80915050919050565b600073ffffffffffffffffffffffffffffffffffffffff168273ffffffffffffffffffffffffffffffffffffffff161415611a2f576040517f08c379a0000000000000000000000000000000000000000000000000000000008152600401611a2690612ab8565b60405180910390fd5b611a388161150d565b15611a78576040517f08c379a0000000000000000000000000000000000000000000000000000000008152600401611a6f90612b24565b60405180910390fd5b611a8660008383600161154e565b611a8f8161150d565b15611acf576040517f08c379a0000000000000000000000000000000000000000000000000000000008152600401611ac690612b24565b60405180910390fd5b6001600360008473ffffffffffffffffffffffffffffffffffffffff1673ffffffffffffffffffffffffffffffffffffffff16815260200190815260200160002060008282540192505081905550816002600083815260200190815260200160002060006101000a81548173ffffffffffffffffffffffffffffffffffffffff021916908373ffffffffffffffffffffffffffffffffffffffff160217905550808273ffffffffffffffffffffffffffffffffffffffff16600073ffffffffffffffffffffffffffffffffffffffff167fddf252ad1be2c89b69c2b068fc378daa952ba7f163c4a11628f55a4df523b3ef60405160405180910390a4611bd9600083836001611674565b5050565b6000808273ffffffffffffffffffffffffffffffffffffffff163b119050919050565b6000604051905090565b600080fd5b600080fd5b60007fffffffff0000000000000000000000000000000000000000000000000000000082169050919050565b611c4981611c14565b8114611c5457600080fd5b50565b600081359050611c6681611c40565b92915050565b600060208284031215611c8257611c81611c0a565b5b6000611c9084828501611c57565b91505092915050565b60008115159050919050565b611cae81611c99565b82525050565b6000602082019050611cc96000830184611ca5565b92915050565b600081519050919050565b600082825260208201905092915050565b60005b83811015611d09578082015181840152602081019050611cee565b83811115611d18576000848401525b50505050565b6000601f19601f8301169050919050565b6000611d3a82611ccf565b611d448185611cda565b9350611d54818560208601611ceb565b611d5d81611d1e565b840191505092915050565b60006020820190508181036000830152611d828184611d2f565b905092915050565b6000819050919050565b611d9d81611d8a565b8114611da857600080fd5b50565b600081359050611dba81611d94565b92915050565b600060208284031215611dd657611dd5611c0a565b5b6000611de484828501611dab565b91505092915050565b600073ffffffffffffffffffffffffffffffffffffffff82169050919050565b6000611e1882611ded565b9050919050565b611e2881611e0d565b82525050565b6000602082019050611e436000830184611e1f565b92915050565b611e5281611e0d565b8114611e5d57600080fd5b50565b600081359050611e6f81611e49565b92915050565b60008060408385031215611e8c57611e8b611c0a565b5b6000611e9a85828601611e60565b9250506020611eab85828601611dab565b9150509250929050565b600080600060608486031215611ece57611ecd611c0a565b5b6000611edc86828701611e60565b9350506020611eed86828701611e60565b9250506040611efe86828701611dab565b9150509250925092565b600060208284031215611f1e57611f1d611c0a565b5b6000611f2c84828501611e60565b91505092915050565b611f3e81611d8a565b82525050565b6000602082019050611f596000830184611f35565b92915050565b611f6881611c99565b8114611f7357600080fd5b50565b600081359050611f8581611f5f565b92915050565b60008060408385031215611fa257611fa1611c0a565b5b6000611fb085828601611e60565b9250506020611fc185828601611f76565b9150509250929050565b600080fd5b600080fd5b7f4e487b7100000000000000000000000000000000000000000000000000000000600052604160045260246000fd5b61200d82611d1e565b810181811067ffffffffffffffff8211171561202c5761202b611fd5565b5b80604052505050565b600061203f611c00565b905061204b8282612004565b919050565b600067ffffffffffffffff82111561206b5761206a611fd5565b5b61207482611d1e565b9050602081019050919050565b82818337600083830152505050565b60006120a361209e84612050565b612035565b9050828152602081018484840111156120bf576120be611fd0565b5b6120ca848285612081565b509392505050565b600082601f8301126120e7576120e6611fcb565b5b81356120f7848260208601612090565b91505092915050565b6000806000806080858703121561211a57612119611c0a565b5b600061212887828801611e60565b945050602061213987828801611e60565b935050604061214a87828801611dab565b925050606085013567ffffffffffffffff81111561216b5761216a611c0f565b5b612177878288016120d2565b91505092959194509250565b6000806040838503121561219a57612199611c0a565b5b60006121a885828601611e60565b92505060206121b985828601611e60565b9150509250929050565b7f4e487b7100000000000000000000000000000000000000000000000000000000600052602260045260246000fd5b6000600282049050600182168061220a57607f821691505b6020821081141561221e5761221d6121c3565b5b50919050565b7f4552433732313a20617070726f76616c20746f2063757272656e74206f776e6560008201527f7200000000000000000000000000000000000000000000000000000000000000602082015250565b6000612280602183611cda565b915061228b82612224565b604082019050919050565b600060208201905081810360008301526122af81612273565b9050919050565b7f4552433732313a20617070726f76652063616c6c6572206973206e6f7420746f60008201527f6b656e206f776e6572206f7220617070726f76656420666f7220616c6c000000602082015250565b6000612312603d83611cda565b915061231d826122b6565b604082019050919050565b6000602082019050818103600083015261234181612305565b9050919050565b7f4552433732313a2063616c6c6572206973206e6f7420746f6b656e206f776e6560008201527f72206f7220617070726f76656400000000000000000000000000000000000000602082015250565b60006123a4602d83611cda565b91506123af82612348565b604082019050919050565b600060208201905081810360008301526123d381612397565b9050919050565b7f4552433732313a20696e76616c696420746f6b656e2049440000000000000000600082015250565b6000612410601883611cda565b915061241b826123da565b602082019050919050565b6000602082019050818103600083015261243f81612403565b9050919050565b7f4e487b7100000000000000000000000000000000000000000000000000000000600052601160045260246000fd5b600061248082611d8a565b91507fffffffffffffffffffffffffffffffffffffffffffffffffffffffffffffffff8214156124b3576124b2612446565b5b600182019050919050565b7f4552433732313a2061646472657373207a65726f206973206e6f74206120766160008201527f6c6964206f776e65720000000000000000000000000000000000000000000000602082015250565b600061251a602983611cda565b9150612525826124be565b604082019050919050565b600060208201905081810360008301526125498161250d565b9050919050565b600081905092915050565b600061256682611ccf565b6125708185612550565b9350612580818560208601611ceb565b80840191505092915050565b6000612598828561255b565b91506125a4828461255b565b91508190509392505050565b7f4f776e61626c653a206e6577206f776e657220697320746865207a65726f206160008201527f6464726573730000000000000000000000000000000000000000000000000000602082015250565b600061260c602683611cda565b9150612617826125b0565b604082019050919050565b6000602082019050818103600083015261263b816125ff565b9050919050565b7f4552433732313a207472616e736665722066726f6d20696e636f72726563742060008201527f6f776e6572000000000000000000000000000000000000000000000000000000602082015250565b600061269e602583611cda565b91506126a982612642565b604082019050919050565b600060208201905081810360008301526126cd81612691565b9050919050565b7f4552433732313a207472616e7366657220746f20746865207a65726f2061646460008201527f7265737300000000000000000000000000000000000000000000000000000000602082015250565b6000612730602483611cda565b915061273b826126d4565b604082019050919050565b6000602082019050818103600083015261275f81612723565b9050919050565b7f4f776e61626c653a2063616c6c6572206973206e6f7420746865206f776e6572600082015250565b600061279c602083611cda565b91506127a782612766565b602082019050919050565b600060208201905081810360008301526127cb8161278f565b9050919050565b7f4552433732313a20617070726f766520746f2063616c6c657200000000000000600082015250565b6000612808601983611cda565b9150612813826127d2565b602082019050919050565b60006020820190508181036000830152612837816127fb565b9050919050565b7f4552433732313a207472616e7366657220746f206e6f6e20455243373231526560008201527f63656976657220696d706c656d656e7465720000000000000000000000000000602082015250565b600061289a603283611cda565b91506128a58261283e565b604082019050919050565b600060208201905081810360008301526128c98161288d565b9050919050565b7f4e487b7100000000000000000000000000000000000000000000000000000000600052601260045260246000fd5b600061290a82611d8a565b915061291583611d8a565b92508282101561292857612927612446565b5b828203905092915050565b600061293e82611d8a565b915061294983611d8a565b9250827fffffffffffffffffffffffffffffffffffffffffffffffffffffffffffffffff0382111561297e5761297d612446565b5b828201905092915050565b600081519050919050565b600082825260208201905092915050565b60006129b082612989565b6129ba8185612994565b93506129ca818560208601611ceb565b6129d381611d1e565b840191505092915050565b60006080820190506129f36000830187611e1f565b612a006020830186611e1f565b612a0d6040830185611f35565b8181036060830152612a1f81846129a5565b905095945050505050565b600081519050612a3981611c40565b92915050565b600060208284031215612a5557612a54611c0a565b5b6000612a6384828501612a2a565b91505092915050565b7f4552433732313a206d696e7420746f20746865207a65726f2061646472657373600082015250565b6000612aa2602083611cda565b9150612aad82612a6c565b602082019050919050565b60006020820190508181036000830152612ad181612a95565b9050919050565b7f4552433732313a20746f6b656e20616c7265616479206d696e74656400000000600082015250565b6000612b0e601c83611cda565b9150612b1982612ad8565b602082019050919050565b60006020820190508181036000830152612b3d81612b01565b905091905056fea2646970667358221220093648563e7010c9ca99ac9b68ecd327cce8894abca95392a2bcb1417259bd3364736f6c63430008090033",
  "linkReferences": {},
  "deployedLinkReferences": {}
}